{
  "_format": "hh-sol-artifact-1",
  "contractName": "AccountManager",
  "sourceName": "contracts/AccountManager.sol",
  "abi": [
    {
      "inputs": [
        {
          "internalType": "contract IERC20",
          "name": "_USDC",
          "type": "address"
        },
        {
          "internalType": "contract ITraidingAccount",
          "name": "traidAc",
          "type": "address"
        }
      ],
      "stateMutability": "nonpayable",
      "type": "constructor"
    },
    {
      "inputs": [
        {
          "internalType": "address",
          "name": "owner",
          "type": "address"
        }
      ],
      "name": "OwnableInvalidOwner",
      "type": "error"
    },
    {
      "inputs": [
        {
          "internalType": "address",
          "name": "account",
          "type": "address"
        }
      ],
      "name": "OwnableUnauthorizedAccount",
      "type": "error"
    },
    {
      "anonymous": false,
      "inputs": [
        {
          "indexed": true,
          "internalType": "contract LiquidityPool",
          "name": "lp",
          "type": "address"
        },
        {
          "indexed": true,
          "internalType": "address",
          "name": "manager",
          "type": "address"
        }
      ],
      "name": "LPCreated",
      "type": "event"
    },
    {
      "anonymous": false,
      "inputs": [
        {
          "indexed": true,
          "internalType": "address",
          "name": "previousOwner",
          "type": "address"
        },
        {
          "indexed": true,
          "internalType": "address",
          "name": "newOwner",
          "type": "address"
        }
      ],
      "name": "OwnershipTransferred",
      "type": "event"
    },
    {
      "inputs": [
        {
          "internalType": "uint256",
          "name": "_fundrisingDuration",
          "type": "uint256"
        },
        {
          "internalType": "uint256",
          "name": "_timeForTraiding",
          "type": "uint256"
        }
      ],
      "name": "createAccount",
      "outputs": [],
      "stateMutability": "nonpayable",
      "type": "function"
    },
    {
      "inputs": [
        {
          "internalType": "contract LiquidityPool",
          "name": "lp",
          "type": "address"
        }
      ],
      "name": "getIsValid",
      "outputs": [
        {
          "internalType": "bool",
          "name": "",
          "type": "bool"
        }
      ],
      "stateMutability": "view",
      "type": "function"
    },
    {
      "inputs": [],
      "name": "owner",
      "outputs": [
        {
          "internalType": "address",
          "name": "",
          "type": "address"
        }
      ],
      "stateMutability": "view",
      "type": "function"
    },
    {
      "inputs": [],
      "name": "renounceOwnership",
      "outputs": [],
      "stateMutability": "nonpayable",
      "type": "function"
    },
    {
      "inputs": [
        {
          "internalType": "contract ITraidingAccount",
          "name": "newTraidingAccount",
          "type": "address"
        }
      ],
      "name": "setTraidingAccount",
      "outputs": [],
      "stateMutability": "nonpayable",
      "type": "function"
    },
    {
      "inputs": [
        {
          "internalType": "contract IERC20",
          "name": "newusdc",
          "type": "address"
        }
      ],
      "name": "setUSDC",
      "outputs": [],
      "stateMutability": "nonpayable",
      "type": "function"
    },
    {
      "inputs": [
        {
          "internalType": "address",
          "name": "newOwner",
          "type": "address"
        }
      ],
      "name": "transferOwnership",
      "outputs": [],
      "stateMutability": "nonpayable",
      "type": "function"
    }
  ],
  "bytecode": "0x60806040523480156200001157600080fd5b5060405162002a8e38038062002a8e8339818101604052810190620000379190620002d0565b33600073ffffffffffffffffffffffffffffffffffffffff168173ffffffffffffffffffffffffffffffffffffffff1603620000ad5760006040517f1e4fbdf7000000000000000000000000000000000000000000000000000000008152600401620000a4919062000328565b60405180910390fd5b620000be816200014960201b60201c565b5080600260006101000a81548173ffffffffffffffffffffffffffffffffffffffff021916908373ffffffffffffffffffffffffffffffffffffffff16021790555081600160006101000a81548173ffffffffffffffffffffffffffffffffffffffff021916908373ffffffffffffffffffffffffffffffffffffffff160217905550505062000345565b60008060009054906101000a900473ffffffffffffffffffffffffffffffffffffffff169050816000806101000a81548173ffffffffffffffffffffffffffffffffffffffff021916908373ffffffffffffffffffffffffffffffffffffffff1602179055508173ffffffffffffffffffffffffffffffffffffffff168173ffffffffffffffffffffffffffffffffffffffff167f8be0079c531659141344cd1fd0a4f28419497f9722a3daafe3b4186f6b6457e060405160405180910390a35050565b600080fd5b600073ffffffffffffffffffffffffffffffffffffffff82169050919050565b60006200023f8262000212565b9050919050565b6000620002538262000232565b9050919050565b620002658162000246565b81146200027157600080fd5b50565b60008151905062000285816200025a565b92915050565b6000620002988262000232565b9050919050565b620002aa816200028b565b8114620002b657600080fd5b50565b600081519050620002ca816200029f565b92915050565b60008060408385031215620002ea57620002e96200020d565b5b6000620002fa8582860162000274565b92505060206200030d85828601620002b9565b9150509250929050565b620003228162000232565b82525050565b60006020820190506200033f600083018462000317565b92915050565b61273980620003556000396000f3fe60806040523480156200001157600080fd5b5060043610620000885760003560e01c8063715018a61162000063578063715018a614620001035780638da5cb5b146200010f578063b3e089a21462000131578063f2fde38b14620001515762000088565b806311819613146200008d5780631a98449514620000c3578063610526d114620000e3575b600080fd5b620000ab6004803603810190620000a5919062000659565b62000171565b604051620000ba9190620006a8565b60405180910390f35b620000e16004803603810190620000db91906200071e565b620001c7565b005b620001016004803603810190620000fb91906200078b565b62000215565b005b6200010d62000355565b005b620001196200036d565b604051620001289190620007e3565b60405180910390f35b6200014f600480360381019062000149919062000845565b62000396565b005b6200016f6004803603810190620001699190620008a8565b620003e4565b005b6000600360008373ffffffffffffffffffffffffffffffffffffffff1673ffffffffffffffffffffffffffffffffffffffff16815260200190815260200160002060009054906101000a900460ff169050919050565b620001d162000471565b80600260006101000a81548173ffffffffffffffffffffffffffffffffffffffff021916908373ffffffffffffffffffffffffffffffffffffffff16021790555050565b600033600160009054906101000a900473ffffffffffffffffffffffffffffffffffffffff168484600260009054906101000a900473ffffffffffffffffffffffffffffffffffffffff166040516200026e90620005cd565b6200027e9594939291906200097b565b604051809103906000f0801580156200029b573d6000803e3d6000fd5b5090506001600360008373ffffffffffffffffffffffffffffffffffffffff1673ffffffffffffffffffffffffffffffffffffffff16815260200190815260200160002060006101000a81548160ff0219169083151502179055503373ffffffffffffffffffffffffffffffffffffffff168173ffffffffffffffffffffffffffffffffffffffff167f9c17294160d1ae9f8e0ffb201446af7ff7f74c645db3ca65d09b51b115cb3df060405160405180910390a3505050565b6200035f62000471565b6200036b600062000501565b565b60008060009054906101000a900473ffffffffffffffffffffffffffffffffffffffff16905090565b620003a062000471565b80600160006101000a81548173ffffffffffffffffffffffffffffffffffffffff021916908373ffffffffffffffffffffffffffffffffffffffff16021790555050565b620003ee62000471565b600073ffffffffffffffffffffffffffffffffffffffff168173ffffffffffffffffffffffffffffffffffffffff1603620004635760006040517f1e4fbdf70000000000000000000000000000000000000000000000000000000081526004016200045a9190620007e3565b60405180910390fd5b6200046e8162000501565b50565b6200047b620005c5565b73ffffffffffffffffffffffffffffffffffffffff166200049b6200036d565b73ffffffffffffffffffffffffffffffffffffffff1614620004ff57620004c1620005c5565b6040517f118cdaa7000000000000000000000000000000000000000000000000000000008152600401620004f69190620007e3565b60405180910390fd5b565b60008060009054906101000a900473ffffffffffffffffffffffffffffffffffffffff169050816000806101000a81548173ffffffffffffffffffffffffffffffffffffffff021916908373ffffffffffffffffffffffffffffffffffffffff1602179055508173ffffffffffffffffffffffffffffffffffffffff168173ffffffffffffffffffffffffffffffffffffffff167f8be0079c531659141344cd1fd0a4f28419497f9722a3daafe3b4186f6b6457e060405160405180910390a35050565b600033905090565b611d2b80620009d983390190565b600080fd5b600073ffffffffffffffffffffffffffffffffffffffff82169050919050565b60006200060d82620005e0565b9050919050565b6000620006218262000600565b9050919050565b620006338162000614565b81146200063f57600080fd5b50565b600081359050620006538162000628565b92915050565b600060208284031215620006725762000671620005db565b5b6000620006828482850162000642565b91505092915050565b60008115159050919050565b620006a2816200068b565b82525050565b6000602082019050620006bf600083018462000697565b92915050565b6000620006d282620005e0565b9050919050565b6000620006e682620006c5565b9050919050565b620006f881620006d9565b81146200070457600080fd5b50565b6000813590506200071881620006ed565b92915050565b600060208284031215620007375762000736620005db565b5b6000620007478482850162000707565b91505092915050565b6000819050919050565b620007658162000750565b81146200077157600080fd5b50565b60008135905062000785816200075a565b92915050565b60008060408385031215620007a557620007a4620005db565b5b6000620007b58582860162000774565b9250506020620007c88582860162000774565b9150509250929050565b620007dd81620006c5565b82525050565b6000602082019050620007fa6000830184620007d2565b92915050565b60006200080d82620006c5565b9050919050565b6200081f8162000800565b81146200082b57600080fd5b50565b6000813590506200083f8162000814565b92915050565b6000602082840312156200085e576200085d620005db565b5b60006200086e848285016200082e565b91505092915050565b6200088281620006c5565b81146200088e57600080fd5b50565b600081359050620008a28162000877565b92915050565b600060208284031215620008c157620008c0620005db565b5b6000620008d18482850162000891565b91505092915050565b6000819050919050565b600062000905620008ff620008f984620005e0565b620008da565b620005e0565b9050919050565b60006200091982620008e4565b9050919050565b60006200092d826200090c565b9050919050565b6200093f8162000920565b82525050565b620009508162000750565b82525050565b600062000963826200090c565b9050919050565b620009758162000956565b82525050565b600060a082019050620009926000830188620007d2565b620009a1602083018762000934565b620009b0604083018662000945565b620009bf606083018562000945565b620009ce60808301846200096a565b969550505050505056fe60806040526005600055600060015560006002556000600360006101000a81548160ff0219169083151502179055503480156200003b57600080fd5b5060405162001d2b38038062001d2b8339818101604052810190620000619190620002c2565b600073ffffffffffffffffffffffffffffffffffffffff168573ffffffffffffffffffffffffffffffffffffffff16036200009b57600080fd5b84600760006101000a81548173ffffffffffffffffffffffffffffffffffffffff021916908373ffffffffffffffffffffffffffffffffffffffff16021790555080600a60006101000a81548173ffffffffffffffffffffffffffffffffffffffff021916908373ffffffffffffffffffffffffffffffffffffffff16021790555083600960006101000a81548173ffffffffffffffffffffffffffffffffffffffff021916908373ffffffffffffffffffffffffffffffffffffffff16021790555082426200016c919062000379565b6004819055508160045462000182919062000379565b6006819055505050505050620003b4565b600080fd5b600073ffffffffffffffffffffffffffffffffffffffff82169050919050565b6000620001c58262000198565b9050919050565b620001d781620001b8565b8114620001e357600080fd5b50565b600081519050620001f781620001cc565b92915050565b60006200020a82620001b8565b9050919050565b6200021c81620001fd565b81146200022857600080fd5b50565b6000815190506200023c8162000211565b92915050565b6000819050919050565b620002578162000242565b81146200026357600080fd5b50565b60008151905062000277816200024c565b92915050565b60006200028a82620001b8565b9050919050565b6200029c816200027d565b8114620002a857600080fd5b50565b600081519050620002bc8162000291565b92915050565b600080600080600060a08688031215620002e157620002e062000193565b5b6000620002f188828901620001e6565b955050602062000304888289016200022b565b9450506040620003178882890162000266565b93505060606200032a8882890162000266565b92505060806200033d88828901620002ab565b9150509295509295909350565b7f4e487b7100000000000000000000000000000000000000000000000000000000600052601160045260246000fd5b6000620003868262000242565b9150620003938362000242565b9250828201905080821115620003ae57620003ad6200034a565b5b92915050565b61196780620003c46000396000f3fe6080604052600436106101235760003560e01c8063848f7b44116100a0578063cb72759d11610064578063cb72759d14610376578063cf73a1bc1461039f578063d50bcc71146103ca578063da78a7e314610407578063fe95b2a5146104325761012a565b8063848f7b441461029f5780638498ff68146102ca5780639c7632fc146102f5578063b69ef8a814610320578063c0c41b521461034b5761012a565b80632e2ebe06116100e75780632e2ebe06146101f25780633ccfd60b1461021b5780633e6ad9601461023257806354bf85121461024957806377212ead146102745761012a565b8063058132661461012f578063076bc8551461014657806312065fe014610171578063198055381461019c57806320616967146101c75761012a565b3661012a57005b600080fd5b34801561013b57600080fd5b5061014461045b565b005b34801561015257600080fd5b5061015b6105ea565b6040516101689190611228565b60405180910390f35b34801561017d57600080fd5b506101866105f0565b6040516101939190611228565b60405180910390f35b3480156101a857600080fd5b506101b16105fa565b6040516101be9190611228565b60405180910390f35b3480156101d357600080fd5b506101dc610604565b6040516101e99190611228565b60405180910390f35b3480156101fe57600080fd5b5061021960048036038101906102149190611274565b61060a565b005b34801561022757600080fd5b506102306107b1565b005b34801561023e57600080fd5b5061024761098a565b005b34801561025557600080fd5b5061025e610abf565b60405161026b9190611228565b60405180910390f35b34801561028057600080fd5b50610289610db3565b60405161029691906112bc565b60405180910390f35b3480156102ab57600080fd5b506102b4610dca565b6040516102c19190611228565b60405180910390f35b3480156102d657600080fd5b506102df610dd0565b6040516102ec9190611228565b60405180910390f35b34801561030157600080fd5b5061030a610dd6565b6040516103179190611228565b60405180910390f35b34801561032c57600080fd5b50610335610ddc565b6040516103429190611228565b60405180910390f35b34801561035757600080fd5b50610360610de2565b60405161036d91906112bc565b60405180910390f35b34801561038257600080fd5b5061039d60048036038101906103989190611274565b610df5565b005b3480156103ab57600080fd5b506103b4610f61565b6040516103c19190611318565b60405180910390f35b3480156103d657600080fd5b506103f160048036038101906103ec919061135f565b610f87565b6040516103fe9190611228565b60405180910390f35b34801561041357600080fd5b5061041c610fd0565b6040516104299190611228565b60405180910390f35b34801561043e57600080fd5b5061045960048036038101906104549190611274565b610fd6565b005b600654421161049f576040517f08c379a0000000000000000000000000000000000000000000000000000000008152600401610496906113e9565b60405180910390fd5b600a60009054906101000a900473ffffffffffffffffffffffffffffffffffffffff1673ffffffffffffffffffffffffffffffffffffffff166350f0a08b476040518263ffffffff1660e01b81526004016000604051808303818588803b15801561050957600080fd5b505af115801561051d573d6000803e3d6000fd5b505050505061052a610abf565b50600960009054906101000a900473ffffffffffffffffffffffffffffffffffffffff1673ffffffffffffffffffffffffffffffffffffffff166370a08231306040518263ffffffff1660e01b81526004016105869190611318565b602060405180830381865afa1580156105a3573d6000803e3d6000fd5b505050506040513d601f19601f820116820180604052508101906105c7919061141e565b6002819055506000600360006101000a81548160ff021916908315150217905550565b60005481565b6000600154905090565b6000600854905090565b60025481565b600454421061064e576040517f08c379a000000000000000000000000000000000000000000000000000000000815260040161064590611497565b60405180910390fd5b80600b60003373ffffffffffffffffffffffffffffffffffffffff1673ffffffffffffffffffffffffffffffffffffffff168152602001908152602001600020600082825461069d91906114e6565b9250508190555080600160008282546106b691906114e6565b92505081905550600960009054906101000a900473ffffffffffffffffffffffffffffffffffffffff1673ffffffffffffffffffffffffffffffffffffffff166323b872dd3330846040518463ffffffff1660e01b815260040161071c9392919061151a565b6020604051808303816000875af115801561073b573d6000803e3d6000fd5b505050506040513d601f19601f8201168201806040525081019061075f919061157d565b503373ffffffffffffffffffffffffffffffffffffffff167f4a22dc040204dc3b4c23d59337813142c712ad0dfdf530ad27fd3e72de3bf77b826040516107a69190611228565b60405180910390a250565b60065442116107f5576040517f08c379a00000000000000000000000000000000000000000000000000000000081526004016107ec906113e9565b60405180910390fd5b6000600154600b60003373ffffffffffffffffffffffffffffffffffffffff1673ffffffffffffffffffffffffffffffffffffffff1681526020019081526020016000205460025461084791906115aa565b610851919061161b565b90506000600b60003373ffffffffffffffffffffffffffffffffffffffff1673ffffffffffffffffffffffffffffffffffffffff16815260200190815260200160002081905550600960009054906101000a900473ffffffffffffffffffffffffffffffffffffffff1673ffffffffffffffffffffffffffffffffffffffff1663a9059cbb33836040518363ffffffff1660e01b81526004016108f592919061164c565b6020604051808303816000875af1158015610914573d6000803e3d6000fd5b505050506040513d601f19601f82011682018060405250810190610938919061157d565b503373ffffffffffffffffffffffffffffffffffffffff167f774564cdeb2eed3fea82edc31d04b2e1451256f6b726da108f32a53f4307ef488260405161097f9190611228565b60405180910390a250565b3373ffffffffffffffffffffffffffffffffffffffff16600760009054906101000a900473ffffffffffffffffffffffffffffffffffffffff1673ffffffffffffffffffffffffffffffffffffffff1614610a1a576040517f08c379a0000000000000000000000000000000000000000000000000000000008152600401610a11906116c1565b60405180910390fd5b6004544211610a5e576040517f08c379a0000000000000000000000000000000000000000000000000000000008152600401610a559061172d565b60405180910390fd5b6006544210610aa2576040517f08c379a0000000000000000000000000000000000000000000000000000000008152600401610a9990611799565b60405180910390fd5b6001600360006101000a81548160ff021916908315150217905550565b6000600154600960009054906101000a900473ffffffffffffffffffffffffffffffffffffffff1673ffffffffffffffffffffffffffffffffffffffff166370a08231306040518263ffffffff1660e01b8152600401610b1f9190611318565b602060405180830381865afa158015610b3c573d6000803e3d6000fd5b505050506040513d601f19601f82011682018060405250810190610b60919061141e565b11610bc75760006008819055503373ffffffffffffffffffffffffffffffffffffffff167f33b3d98265f0a5c5a0c3d53550312d300dbbe60c46ef0a99e8cb750af61611ec600854604051610bb59190611228565b60405180910390a26008549050610db0565b6000600154600960009054906101000a900473ffffffffffffffffffffffffffffffffffffffff1673ffffffffffffffffffffffffffffffffffffffff166370a08231306040518263ffffffff1660e01b8152600401610c279190611318565b602060405180830381865afa158015610c44573d6000803e3d6000fd5b505050506040513d601f19601f82011682018060405250810190610c68919061141e565b610c7291906117b9565b9050600054606482610c84919061161b565b610c8e91906115aa565b600881905550600960009054906101000a900473ffffffffffffffffffffffffffffffffffffffff1673ffffffffffffffffffffffffffffffffffffffff1663a9059cbb600760009054906101000a900473ffffffffffffffffffffffffffffffffffffffff166008546040518363ffffffff1660e01b8152600401610d1592919061164c565b6020604051808303816000875af1158015610d34573d6000803e3d6000fd5b505050506040513d601f19601f82011682018060405250810190610d58919061157d565b503373ffffffffffffffffffffffffffffffffffffffff167f33b3d98265f0a5c5a0c3d53550312d300dbbe60c46ef0a99e8cb750af61611ec600854604051610da19190611228565b60405180910390a26008549150505b90565b6000600360009054906101000a900460ff16905090565b60045481565b60055481565b60085481565b60015481565b600360009054906101000a900460ff1681565b3373ffffffffffffffffffffffffffffffffffffffff16600760009054906101000a900473ffffffffffffffffffffffffffffffffffffffff1673ffffffffffffffffffffffffffffffffffffffff1614610e85576040517f08c379a0000000000000000000000000000000000000000000000000000000008152600401610e7c90611839565b60405180910390fd5b60011515600360009054906101000a900460ff16151514610edb576040517f08c379a0000000000000000000000000000000000000000000000000000000008152600401610ed2906118a5565b60405180910390fd5b600a60009054906101000a900473ffffffffffffffffffffffffffffffffffffffff1673ffffffffffffffffffffffffffffffffffffffff166350f0a08b826040518263ffffffff1660e01b81526004016000604051808303818588803b158015610f4557600080fd5b505af1158015610f59573d6000803e3d6000fd5b505050505050565b600760009054906101000a900473ffffffffffffffffffffffffffffffffffffffff1681565b6000600b60008373ffffffffffffffffffffffffffffffffffffffff1673ffffffffffffffffffffffffffffffffffffffff168152602001908152602001600020549050919050565b60065481565b3373ffffffffffffffffffffffffffffffffffffffff16600760009054906101000a900473ffffffffffffffffffffffffffffffffffffffff1673ffffffffffffffffffffffffffffffffffffffff1614611066576040517f08c379a000000000000000000000000000000000000000000000000000000000815260040161105d90611911565b60405180910390fd5b60011515600360009054906101000a900460ff161515146110bc576040517f08c379a00000000000000000000000000000000000000000000000000000000081526004016110b3906118a5565b60405180910390fd5b600960009054906101000a900473ffffffffffffffffffffffffffffffffffffffff1673ffffffffffffffffffffffffffffffffffffffff1663095ea7b3600a60009054906101000a900473ffffffffffffffffffffffffffffffffffffffff16836040518363ffffffff1660e01b815260040161113b92919061164c565b6020604051808303816000875af115801561115a573d6000803e3d6000fd5b505050506040513d601f19601f8201168201806040525081019061117e919061157d565b50600a60009054906101000a900473ffffffffffffffffffffffffffffffffffffffff1673ffffffffffffffffffffffffffffffffffffffff1663f16c03bc826040518263ffffffff1660e01b81526004016111da9190611228565b600060405180830381600087803b1580156111f457600080fd5b505af1158015611208573d6000803e3d6000fd5b5050505050565b6000819050919050565b6112228161120f565b82525050565b600060208201905061123d6000830184611219565b92915050565b600080fd5b6112518161120f565b811461125c57600080fd5b50565b60008135905061126e81611248565b92915050565b60006020828403121561128a57611289611243565b5b60006112988482850161125f565b91505092915050565b60008115159050919050565b6112b6816112a1565b82525050565b60006020820190506112d160008301846112ad565b92915050565b600073ffffffffffffffffffffffffffffffffffffffff82169050919050565b6000611302826112d7565b9050919050565b611312816112f7565b82525050565b600060208201905061132d6000830184611309565b92915050565b61133c816112f7565b811461134757600080fd5b50565b60008135905061135981611333565b92915050565b60006020828403121561137557611374611243565b5b60006113838482850161134a565b91505092915050565b600082825260208201905092915050565b7f7374696c6c207068617365207472616964696e67000000000000000000000000600082015250565b60006113d360148361138c565b91506113de8261139d565b602082019050919050565b60006020820190508181036000830152611402816113c6565b9050919050565b60008151905061141881611248565b92915050565b60006020828403121561143457611433611243565b5b600061144284828501611409565b91505092915050565b7f66756e64726973696e67207761732066696e6973686564000000000000000000600082015250565b600061148160178361138c565b915061148c8261144b565b602082019050919050565b600060208201905081810360008301526114b081611474565b9050919050565b7f4e487b7100000000000000000000000000000000000000000000000000000000600052601160045260246000fd5b60006114f18261120f565b91506114fc8361120f565b9250828201905080821115611514576115136114b7565b5b92915050565b600060608201905061152f6000830186611309565b61153c6020830185611309565b6115496040830184611219565b949350505050565b61155a816112a1565b811461156557600080fd5b50565b60008151905061157781611551565b92915050565b60006020828403121561159357611592611243565b5b60006115a184828501611568565b91505092915050565b60006115b58261120f565b91506115c08361120f565b92508282026115ce8161120f565b915082820484148315176115e5576115e46114b7565b5b5092915050565b7f4e487b7100000000000000000000000000000000000000000000000000000000600052601260045260246000fd5b60006116268261120f565b91506116318361120f565b925082611641576116406115ec565b5b828204905092915050565b60006040820190506116616000830185611309565b61166e6020830184611219565b9392505050565b7f796f7520617265206e6f74206d616e6167657200000000000000000000000000600082015250565b60006116ab60138361138c565b91506116b682611675565b602082019050919050565b600060208201905081810360008301526116da8161169e565b9050919050565b7f6563686f206e656c7a757920746f72676f766174000000000000000000000000600082015250565b600061171760148361138c565b9150611722826116e1565b602082019050919050565b600060208201905081810360008301526117468161170a565b9050919050565b7f7472616964696e67207761732066696e69736865640000000000000000000000600082015250565b600061178360158361138c565b915061178e8261174d565b602082019050919050565b600060208201905081810360008301526117b281611776565b9050919050565b60006117c48261120f565b91506117cf8361120f565b92508282039050818111156117e7576117e66114b7565b5b92915050565b7f6572726f722065746820746f2075736463000000000000000000000000000000600082015250565b600061182360118361138c565b915061182e826117ed565b602082019050919050565b6000602082019050818103600083015261185281611816565b9050919050565b7f74686973206973206e6f74207068617365207472616964696e67000000000000600082015250565b600061188f601a8361138c565b915061189a82611859565b602082019050919050565b600060208201905081810360008301526118be81611882565b9050919050565b7f6572726f72207573646320746f20657468000000000000000000000000000000600082015250565b60006118fb60118361138c565b9150611906826118c5565b602082019050919050565b6000602082019050818103600083015261192a816118ee565b905091905056fea2646970667358221220c6c50b96212d76d1ac87e87ac1e63c1dae9c8fc51208d9680de1eb00de04bce564736f6c63430008140033a2646970667358221220ea7948fb0a1063aa81bbc72eddf4a2be9ff30cf6f1c3101c5b385e3b26efbd8f64736f6c63430008140033",
  "linkReferences": {},
  "deployedLinkReferences": {}
}