{
  "_format": "hh-sol-artifact-1",
  "contractName": "AccountManager",
  "sourceName": "contracts/AccountManager.sol",
  "abi": [
    {
      "inputs": [
        {
          "internalType": "contract IERC20",
          "name": "_USDC",
          "type": "address"
        },
        {
          "internalType": "contract ITraidingAccount",
          "name": "traidAc",
          "type": "address"
        }
      ],
      "stateMutability": "nonpayable",
      "type": "constructor"
    },
    {
      "inputs": [
        {
          "internalType": "address",
          "name": "owner",
          "type": "address"
        }
      ],
      "name": "OwnableInvalidOwner",
      "type": "error"
    },
    {
      "inputs": [
        {
          "internalType": "address",
          "name": "account",
          "type": "address"
        }
      ],
      "name": "OwnableUnauthorizedAccount",
      "type": "error"
    },
    {
      "anonymous": false,
      "inputs": [
        {
          "indexed": true,
          "internalType": "contract LiquidityPool",
          "name": "lp",
          "type": "address"
        },
        {
          "indexed": true,
          "internalType": "address",
          "name": "manager",
          "type": "address"
        }
      ],
      "name": "LPCreated",
      "type": "event"
    },
    {
      "anonymous": false,
      "inputs": [
        {
          "indexed": true,
          "internalType": "address",
          "name": "previousOwner",
          "type": "address"
        },
        {
          "indexed": true,
          "internalType": "address",
          "name": "newOwner",
          "type": "address"
        }
      ],
      "name": "OwnershipTransferred",
      "type": "event"
    },
    {
      "inputs": [
        {
          "internalType": "uint256",
          "name": "_fundrisingDuration",
          "type": "uint256"
        },
        {
          "internalType": "uint256",
          "name": "_timeForTraiding",
          "type": "uint256"
        }
      ],
      "name": "createAccount",
      "outputs": [],
      "stateMutability": "nonpayable",
      "type": "function"
    },
    {
      "inputs": [
        {
          "internalType": "contract LiquidityPool",
          "name": "lp",
          "type": "address"
        }
      ],
      "name": "getIsValid",
      "outputs": [
        {
          "internalType": "bool",
          "name": "",
          "type": "bool"
        }
      ],
      "stateMutability": "view",
      "type": "function"
    },
    {
      "inputs": [],
      "name": "owner",
      "outputs": [
        {
          "internalType": "address",
          "name": "",
          "type": "address"
        }
      ],
      "stateMutability": "view",
      "type": "function"
    },
    {
      "inputs": [],
      "name": "renounceOwnership",
      "outputs": [],
      "stateMutability": "nonpayable",
      "type": "function"
    },
    {
      "inputs": [
        {
          "internalType": "contract ITraidingAccount",
          "name": "newTraidingAccount",
          "type": "address"
        }
      ],
      "name": "setTraidingAccount",
      "outputs": [],
      "stateMutability": "nonpayable",
      "type": "function"
    },
    {
      "inputs": [
        {
          "internalType": "contract IERC20",
          "name": "newusdc",
          "type": "address"
        }
      ],
      "name": "setUSDC",
      "outputs": [],
      "stateMutability": "nonpayable",
      "type": "function"
    },
    {
      "inputs": [
        {
          "internalType": "address",
          "name": "newOwner",
          "type": "address"
        }
      ],
      "name": "transferOwnership",
      "outputs": [],
      "stateMutability": "nonpayable",
      "type": "function"
    }
  ],
  "bytecode": "0x60806040523480156200001157600080fd5b5060405162002720380380620027208339818101604052810190620000379190620002d0565b33600073ffffffffffffffffffffffffffffffffffffffff168173ffffffffffffffffffffffffffffffffffffffff1603620000ad5760006040517f1e4fbdf7000000000000000000000000000000000000000000000000000000008152600401620000a4919062000328565b60405180910390fd5b620000be816200014960201b60201c565b5080600260006101000a81548173ffffffffffffffffffffffffffffffffffffffff021916908373ffffffffffffffffffffffffffffffffffffffff16021790555081600160006101000a81548173ffffffffffffffffffffffffffffffffffffffff021916908373ffffffffffffffffffffffffffffffffffffffff160217905550505062000345565b60008060009054906101000a900473ffffffffffffffffffffffffffffffffffffffff169050816000806101000a81548173ffffffffffffffffffffffffffffffffffffffff021916908373ffffffffffffffffffffffffffffffffffffffff1602179055508173ffffffffffffffffffffffffffffffffffffffff168173ffffffffffffffffffffffffffffffffffffffff167f8be0079c531659141344cd1fd0a4f28419497f9722a3daafe3b4186f6b6457e060405160405180910390a35050565b600080fd5b600073ffffffffffffffffffffffffffffffffffffffff82169050919050565b60006200023f8262000212565b9050919050565b6000620002538262000232565b9050919050565b620002658162000246565b81146200027157600080fd5b50565b60008151905062000285816200025a565b92915050565b6000620002988262000232565b9050919050565b620002aa816200028b565b8114620002b657600080fd5b50565b600081519050620002ca816200029f565b92915050565b60008060408385031215620002ea57620002e96200020d565b5b6000620002fa8582860162000274565b92505060206200030d85828601620002b9565b9150509250929050565b620003228162000232565b82525050565b60006020820190506200033f600083018462000317565b92915050565b6123cb80620003556000396000f3fe60806040523480156200001157600080fd5b5060043610620000885760003560e01c8063715018a61162000063578063715018a614620001035780638da5cb5b146200010f578063b3e089a21462000131578063f2fde38b14620001515762000088565b806311819613146200008d5780631a98449514620000c3578063610526d114620000e3575b600080fd5b620000ab6004803603810190620000a5919062000659565b62000171565b604051620000ba9190620006a8565b60405180910390f35b620000e16004803603810190620000db91906200071e565b620001c7565b005b620001016004803603810190620000fb91906200078b565b62000215565b005b6200010d62000355565b005b620001196200036d565b604051620001289190620007e3565b60405180910390f35b6200014f600480360381019062000149919062000845565b62000396565b005b6200016f6004803603810190620001699190620008a8565b620003e4565b005b6000600360008373ffffffffffffffffffffffffffffffffffffffff1673ffffffffffffffffffffffffffffffffffffffff16815260200190815260200160002060009054906101000a900460ff169050919050565b620001d162000471565b80600260006101000a81548173ffffffffffffffffffffffffffffffffffffffff021916908373ffffffffffffffffffffffffffffffffffffffff16021790555050565b600033600160009054906101000a900473ffffffffffffffffffffffffffffffffffffffff168484600260009054906101000a900473ffffffffffffffffffffffffffffffffffffffff166040516200026e90620005cd565b6200027e9594939291906200097b565b604051809103906000f0801580156200029b573d6000803e3d6000fd5b5090506001600360008373ffffffffffffffffffffffffffffffffffffffff1673ffffffffffffffffffffffffffffffffffffffff16815260200190815260200160002060006101000a81548160ff0219169083151502179055503373ffffffffffffffffffffffffffffffffffffffff168173ffffffffffffffffffffffffffffffffffffffff167f9c17294160d1ae9f8e0ffb201446af7ff7f74c645db3ca65d09b51b115cb3df060405160405180910390a3505050565b6200035f62000471565b6200036b600062000501565b565b60008060009054906101000a900473ffffffffffffffffffffffffffffffffffffffff16905090565b620003a062000471565b80600160006101000a81548173ffffffffffffffffffffffffffffffffffffffff021916908373ffffffffffffffffffffffffffffffffffffffff16021790555050565b620003ee62000471565b600073ffffffffffffffffffffffffffffffffffffffff168173ffffffffffffffffffffffffffffffffffffffff1603620004635760006040517f1e4fbdf70000000000000000000000000000000000000000000000000000000081526004016200045a9190620007e3565b60405180910390fd5b6200046e8162000501565b50565b6200047b620005c5565b73ffffffffffffffffffffffffffffffffffffffff166200049b6200036d565b73ffffffffffffffffffffffffffffffffffffffff1614620004ff57620004c1620005c5565b6040517f118cdaa7000000000000000000000000000000000000000000000000000000008152600401620004f69190620007e3565b60405180910390fd5b565b60008060009054906101000a900473ffffffffffffffffffffffffffffffffffffffff169050816000806101000a81548173ffffffffffffffffffffffffffffffffffffffff021916908373ffffffffffffffffffffffffffffffffffffffff1602179055508173ffffffffffffffffffffffffffffffffffffffff168173ffffffffffffffffffffffffffffffffffffffff167f8be0079c531659141344cd1fd0a4f28419497f9722a3daafe3b4186f6b6457e060405160405180910390a35050565b600033905090565b6119bd80620009d983390190565b600080fd5b600073ffffffffffffffffffffffffffffffffffffffff82169050919050565b60006200060d82620005e0565b9050919050565b6000620006218262000600565b9050919050565b620006338162000614565b81146200063f57600080fd5b50565b600081359050620006538162000628565b92915050565b600060208284031215620006725762000671620005db565b5b6000620006828482850162000642565b91505092915050565b60008115159050919050565b620006a2816200068b565b82525050565b6000602082019050620006bf600083018462000697565b92915050565b6000620006d282620005e0565b9050919050565b6000620006e682620006c5565b9050919050565b620006f881620006d9565b81146200070457600080fd5b50565b6000813590506200071881620006ed565b92915050565b600060208284031215620007375762000736620005db565b5b6000620007478482850162000707565b91505092915050565b6000819050919050565b620007658162000750565b81146200077157600080fd5b50565b60008135905062000785816200075a565b92915050565b60008060408385031215620007a557620007a4620005db565b5b6000620007b58582860162000774565b9250506020620007c88582860162000774565b9150509250929050565b620007dd81620006c5565b82525050565b6000602082019050620007fa6000830184620007d2565b92915050565b60006200080d82620006c5565b9050919050565b6200081f8162000800565b81146200082b57600080fd5b50565b6000813590506200083f8162000814565b92915050565b6000602082840312156200085e576200085d620005db565b5b60006200086e848285016200082e565b91505092915050565b6200088281620006c5565b81146200088e57600080fd5b50565b600081359050620008a28162000877565b92915050565b600060208284031215620008c157620008c0620005db565b5b6000620008d18482850162000891565b91505092915050565b6000819050919050565b600062000905620008ff620008f984620005e0565b620008da565b620005e0565b9050919050565b60006200091982620008e4565b9050919050565b60006200092d826200090c565b9050919050565b6200093f8162000920565b82525050565b620009508162000750565b82525050565b600062000963826200090c565b9050919050565b620009758162000956565b82525050565b600060a082019050620009926000830188620007d2565b620009a1602083018762000934565b620009b0604083018662000945565b620009bf606083018562000945565b620009ce60808301846200096a565b969550505050505056fe6080604052600560005560006001556000600260006101000a81548160ff0219169083151502179055503480156200003657600080fd5b50604051620019bd380380620019bd83398181016040528101906200005c9190620002bd565b600073ffffffffffffffffffffffffffffffffffffffff168573ffffffffffffffffffffffffffffffffffffffff16036200009657600080fd5b84600660006101000a81548173ffffffffffffffffffffffffffffffffffffffff021916908373ffffffffffffffffffffffffffffffffffffffff16021790555080600960006101000a81548173ffffffffffffffffffffffffffffffffffffffff021916908373ffffffffffffffffffffffffffffffffffffffff16021790555083600860006101000a81548173ffffffffffffffffffffffffffffffffffffffff021916908373ffffffffffffffffffffffffffffffffffffffff160217905550824262000167919062000374565b600381905550816003546200017d919062000374565b6005819055505050505050620003af565b600080fd5b600073ffffffffffffffffffffffffffffffffffffffff82169050919050565b6000620001c08262000193565b9050919050565b620001d281620001b3565b8114620001de57600080fd5b50565b600081519050620001f281620001c7565b92915050565b60006200020582620001b3565b9050919050565b6200021781620001f8565b81146200022357600080fd5b50565b60008151905062000237816200020c565b92915050565b6000819050919050565b62000252816200023d565b81146200025e57600080fd5b50565b600081519050620002728162000247565b92915050565b60006200028582620001b3565b9050919050565b620002978162000278565b8114620002a357600080fd5b50565b600081519050620002b7816200028c565b92915050565b600080600080600060a08688031215620002dc57620002db6200018e565b5b6000620002ec88828901620001e1565b9550506020620002ff8882890162000226565b9450506040620003128882890162000261565b9350506060620003258882890162000261565b92505060806200033888828901620002a6565b9150509295509295909350565b7f4e487b7100000000000000000000000000000000000000000000000000000000600052601160045260246000fd5b600062000381826200023d565b91506200038e836200023d565b9250828201905080821115620003a957620003a862000345565b5b92915050565b6115fe80620003bf6000396000f3fe6080604052600436106100ab5760003560e01c806354bf85121161006457806354bf85121461017b57806377212ead146101a6578063cb72759d146101d1578063cf73a1bc146101fa578063d50bcc7114610225578063fe95b2a514610262576100b2565b806305813266146100b757806312065fe0146100ce57806319805538146100f95780632e2ebe06146101245780633ccfd60b1461014d5780633e6ad96014610164576100b2565b366100b257005b600080fd5b3480156100c357600080fd5b506100cc61028b565b005b3480156100da57600080fd5b506100e3610378565b6040516100f09190610f97565b60405180910390f35b34801561010557600080fd5b5061010e610382565b60405161011b9190610f97565b60405180910390f35b34801561013057600080fd5b5061014b60048036038101906101469190610fe3565b61038c565b005b34801561015957600080fd5b506101626104ef565b005b34801561017057600080fd5b5061017961076e565b005b34801561018757600080fd5b5061019061085f565b60405161019d9190610f97565b60405180910390f35b3480156101b257600080fd5b506101bb610b53565b6040516101c8919061102b565b60405180910390f35b3480156101dd57600080fd5b506101f860048036038101906101f39190610fe3565b610b6a565b005b34801561020657600080fd5b5061020f610cd6565b60405161021c9190611087565b60405180910390f35b34801561023157600080fd5b5061024c600480360381019061024791906110ce565b610cfc565b6040516102599190610f97565b60405180910390f35b34801561026e57600080fd5b5061028960048036038101906102849190610fe3565b610d45565b005b60055442116102cf576040517f08c379a00000000000000000000000000000000000000000000000000000000081526004016102c690611158565b60405180910390fd5b600960009054906101000a900473ffffffffffffffffffffffffffffffffffffffff1673ffffffffffffffffffffffffffffffffffffffff166350f0a08b476040518263ffffffff1660e01b81526004016000604051808303818588803b15801561033957600080fd5b505af115801561034d573d6000803e3d6000fd5b505050505061035a61085f565b506000600260006101000a81548160ff021916908315150217905550565b6000600154905090565b6000600754905090565b80600a60003373ffffffffffffffffffffffffffffffffffffffff1673ffffffffffffffffffffffffffffffffffffffff16815260200190815260200160002060008282546103db91906111a7565b9250508190555080600160008282546103f491906111a7565b92505081905550600860009054906101000a900473ffffffffffffffffffffffffffffffffffffffff1673ffffffffffffffffffffffffffffffffffffffff166323b872dd3330846040518463ffffffff1660e01b815260040161045a939291906111db565b6020604051808303816000875af1158015610479573d6000803e3d6000fd5b505050506040513d601f19601f8201168201806040525081019061049d919061123e565b503373ffffffffffffffffffffffffffffffffffffffff167f4a22dc040204dc3b4c23d59337813142c712ad0dfdf530ad27fd3e72de3bf77b826040516104e49190610f97565b60405180910390a250565b6005544211610533576040517f08c379a000000000000000000000000000000000000000000000000000000000815260040161052a90611158565b60405180910390fd5b6000600754600860009054906101000a900473ffffffffffffffffffffffffffffffffffffffff1673ffffffffffffffffffffffffffffffffffffffff166370a08231306040518263ffffffff1660e01b81526004016105939190611087565b602060405180830381865afa1580156105b0573d6000803e3d6000fd5b505050506040513d601f19601f820116820180604052508101906105d49190611280565b6105de91906112ad565b600154600a60003373ffffffffffffffffffffffffffffffffffffffff1673ffffffffffffffffffffffffffffffffffffffff1681526020019081526020016000205461062b9190611310565b6106359190611341565b90506000600a60003373ffffffffffffffffffffffffffffffffffffffff1673ffffffffffffffffffffffffffffffffffffffff16815260200190815260200160002081905550600860009054906101000a900473ffffffffffffffffffffffffffffffffffffffff1673ffffffffffffffffffffffffffffffffffffffff1663a9059cbb33836040518363ffffffff1660e01b81526004016106d9929190611383565b6020604051808303816000875af11580156106f8573d6000803e3d6000fd5b505050506040513d601f19601f8201168201806040525081019061071c919061123e565b503373ffffffffffffffffffffffffffffffffffffffff167f774564cdeb2eed3fea82edc31d04b2e1451256f6b726da108f32a53f4307ef48826040516107639190610f97565b60405180910390a250565b3373ffffffffffffffffffffffffffffffffffffffff16600660009054906101000a900473ffffffffffffffffffffffffffffffffffffffff1673ffffffffffffffffffffffffffffffffffffffff16146107fe576040517f08c379a00000000000000000000000000000000000000000000000000000000081526004016107f5906113f8565b60405180910390fd5b6003544211610842576040517f08c379a000000000000000000000000000000000000000000000000000000000815260040161083990611464565b60405180910390fd5b6001600260006101000a81548160ff021916908315150217905550565b6000600154600860009054906101000a900473ffffffffffffffffffffffffffffffffffffffff1673ffffffffffffffffffffffffffffffffffffffff166370a08231306040518263ffffffff1660e01b81526004016108bf9190611087565b602060405180830381865afa1580156108dc573d6000803e3d6000fd5b505050506040513d601f19601f820116820180604052508101906109009190611280565b116109675760006007819055503373ffffffffffffffffffffffffffffffffffffffff167f33b3d98265f0a5c5a0c3d53550312d300dbbe60c46ef0a99e8cb750af61611ec6007546040516109559190610f97565b60405180910390a26007549050610b50565b6000600154600860009054906101000a900473ffffffffffffffffffffffffffffffffffffffff1673ffffffffffffffffffffffffffffffffffffffff166370a08231306040518263ffffffff1660e01b81526004016109c79190611087565b602060405180830381865afa1580156109e4573d6000803e3d6000fd5b505050506040513d601f19601f82011682018060405250810190610a089190611280565b610a1291906112ad565b9050600054606482610a249190611310565b610a2e9190611341565b600781905550600860009054906101000a900473ffffffffffffffffffffffffffffffffffffffff1673ffffffffffffffffffffffffffffffffffffffff1663a9059cbb600660009054906101000a900473ffffffffffffffffffffffffffffffffffffffff166007546040518363ffffffff1660e01b8152600401610ab5929190611383565b6020604051808303816000875af1158015610ad4573d6000803e3d6000fd5b505050506040513d601f19601f82011682018060405250810190610af8919061123e565b503373ffffffffffffffffffffffffffffffffffffffff167f33b3d98265f0a5c5a0c3d53550312d300dbbe60c46ef0a99e8cb750af61611ec600754604051610b419190610f97565b60405180910390a26007549150505b90565b6000600260009054906101000a900460ff16905090565b3373ffffffffffffffffffffffffffffffffffffffff16600660009054906101000a900473ffffffffffffffffffffffffffffffffffffffff1673ffffffffffffffffffffffffffffffffffffffff1614610bfa576040517f08c379a0000000000000000000000000000000000000000000000000000000008152600401610bf1906114d0565b60405180910390fd5b60011515600260009054906101000a900460ff16151514610c50576040517f08c379a0000000000000000000000000000000000000000000000000000000008152600401610c479061153c565b60405180910390fd5b600960009054906101000a900473ffffffffffffffffffffffffffffffffffffffff1673ffffffffffffffffffffffffffffffffffffffff166350f0a08b826040518263ffffffff1660e01b81526004016000604051808303818588803b158015610cba57600080fd5b505af1158015610cce573d6000803e3d6000fd5b505050505050565b600660009054906101000a900473ffffffffffffffffffffffffffffffffffffffff1681565b6000600a60008373ffffffffffffffffffffffffffffffffffffffff1673ffffffffffffffffffffffffffffffffffffffff168152602001908152602001600020549050919050565b3373ffffffffffffffffffffffffffffffffffffffff16600660009054906101000a900473ffffffffffffffffffffffffffffffffffffffff1673ffffffffffffffffffffffffffffffffffffffff1614610dd5576040517f08c379a0000000000000000000000000000000000000000000000000000000008152600401610dcc906115a8565b60405180910390fd5b60011515600260009054906101000a900460ff16151514610e2b576040517f08c379a0000000000000000000000000000000000000000000000000000000008152600401610e229061153c565b60405180910390fd5b600860009054906101000a900473ffffffffffffffffffffffffffffffffffffffff1673ffffffffffffffffffffffffffffffffffffffff1663095ea7b3600960009054906101000a900473ffffffffffffffffffffffffffffffffffffffff16836040518363ffffffff1660e01b8152600401610eaa929190611383565b6020604051808303816000875af1158015610ec9573d6000803e3d6000fd5b505050506040513d601f19601f82011682018060405250810190610eed919061123e565b50600960009054906101000a900473ffffffffffffffffffffffffffffffffffffffff1673ffffffffffffffffffffffffffffffffffffffff1663f16c03bc826040518263ffffffff1660e01b8152600401610f499190610f97565b600060405180830381600087803b158015610f6357600080fd5b505af1158015610f77573d6000803e3d6000fd5b5050505050565b6000819050919050565b610f9181610f7e565b82525050565b6000602082019050610fac6000830184610f88565b92915050565b600080fd5b610fc081610f7e565b8114610fcb57600080fd5b50565b600081359050610fdd81610fb7565b92915050565b600060208284031215610ff957610ff8610fb2565b5b600061100784828501610fce565b91505092915050565b60008115159050919050565b61102581611010565b82525050565b6000602082019050611040600083018461101c565b92915050565b600073ffffffffffffffffffffffffffffffffffffffff82169050919050565b600061107182611046565b9050919050565b61108181611066565b82525050565b600060208201905061109c6000830184611078565b92915050565b6110ab81611066565b81146110b657600080fd5b50565b6000813590506110c8816110a2565b92915050565b6000602082840312156110e4576110e3610fb2565b5b60006110f2848285016110b9565b91505092915050565b600082825260208201905092915050565b7f7374696c6c207068617365207472616964696e67000000000000000000000000600082015250565b60006111426014836110fb565b915061114d8261110c565b602082019050919050565b6000602082019050818103600083015261117181611135565b9050919050565b7f4e487b7100000000000000000000000000000000000000000000000000000000600052601160045260246000fd5b60006111b282610f7e565b91506111bd83610f7e565b92508282019050808211156111d5576111d4611178565b5b92915050565b60006060820190506111f06000830186611078565b6111fd6020830185611078565b61120a6040830184610f88565b949350505050565b61121b81611010565b811461122657600080fd5b50565b60008151905061123881611212565b92915050565b60006020828403121561125457611253610fb2565b5b600061126284828501611229565b91505092915050565b60008151905061127a81610fb7565b92915050565b60006020828403121561129657611295610fb2565b5b60006112a48482850161126b565b91505092915050565b60006112b882610f7e565b91506112c383610f7e565b92508282039050818111156112db576112da611178565b5b92915050565b7f4e487b7100000000000000000000000000000000000000000000000000000000600052601260045260246000fd5b600061131b82610f7e565b915061132683610f7e565b925082611336576113356112e1565b5b828204905092915050565b600061134c82610f7e565b915061135783610f7e565b925082820261136581610f7e565b9150828204841483151761137c5761137b611178565b5b5092915050565b60006040820190506113986000830185611078565b6113a56020830184610f88565b9392505050565b7f796f7520617265206e6f74206d616e6167657200000000000000000000000000600082015250565b60006113e26013836110fb565b91506113ed826113ac565b602082019050919050565b60006020820190508181036000830152611411816113d5565b9050919050565b7f6563686f206e656c7a757920746f72676f766174000000000000000000000000600082015250565b600061144e6014836110fb565b915061145982611418565b602082019050919050565b6000602082019050818103600083015261147d81611441565b9050919050565b7f6572726f722065746820746f2075736463000000000000000000000000000000600082015250565b60006114ba6011836110fb565b91506114c582611484565b602082019050919050565b600060208201905081810360008301526114e9816114ad565b9050919050565b7f74686973206973206e6f74207068617365207472616964696e67000000000000600082015250565b6000611526601a836110fb565b9150611531826114f0565b602082019050919050565b6000602082019050818103600083015261155581611519565b9050919050565b7f6572726f72207573646320746f20657468000000000000000000000000000000600082015250565b60006115926011836110fb565b915061159d8261155c565b602082019050919050565b600060208201905081810360008301526115c181611585565b905091905056fea264697066735822122035f87b1e7090f50e6f173432034225c9a1269a475b248141eab9bd03d87a346f64736f6c63430008140033a2646970667358221220e83cb4a7e51daf8eabacba2d357aded7eabf837180225d21e44389f9b876cd2064736f6c63430008140033",
  "linkReferences": {},
  "deployedLinkReferences": {}
}