{
  "_format": "hh-sol-artifact-1",
  "contractName": "AccountManager",
  "sourceName": "contracts/AccountManager.sol",
  "abi": [
    {
      "inputs": [
        {
          "internalType": "contract IERC20",
          "name": "_USDC",
          "type": "address"
        },
        {
          "internalType": "contract ITraidingAccount",
          "name": "traidAc",
          "type": "address"
        }
      ],
      "stateMutability": "nonpayable",
      "type": "constructor"
    },
    {
      "inputs": [
        {
          "internalType": "address",
          "name": "owner",
          "type": "address"
        }
      ],
      "name": "OwnableInvalidOwner",
      "type": "error"
    },
    {
      "inputs": [
        {
          "internalType": "address",
          "name": "account",
          "type": "address"
        }
      ],
      "name": "OwnableUnauthorizedAccount",
      "type": "error"
    },
    {
      "anonymous": false,
      "inputs": [
        {
          "indexed": true,
          "internalType": "contract LiquidityPool",
          "name": "lp",
          "type": "address"
        },
        {
          "indexed": true,
          "internalType": "address",
          "name": "manager",
          "type": "address"
        }
      ],
      "name": "LPCreated",
      "type": "event"
    },
    {
      "anonymous": false,
      "inputs": [
        {
          "indexed": true,
          "internalType": "address",
          "name": "previousOwner",
          "type": "address"
        },
        {
          "indexed": true,
          "internalType": "address",
          "name": "newOwner",
          "type": "address"
        }
      ],
      "name": "OwnershipTransferred",
      "type": "event"
    },
    {
      "inputs": [
        {
          "internalType": "uint256",
          "name": "_fundrisingDuration",
          "type": "uint256"
        }
      ],
      "name": "createAccount",
      "outputs": [],
      "stateMutability": "nonpayable",
      "type": "function"
    },
    {
      "inputs": [
        {
          "internalType": "contract LiquidityPool",
          "name": "lp",
          "type": "address"
        }
      ],
      "name": "getIsValid",
      "outputs": [
        {
          "internalType": "bool",
          "name": "",
          "type": "bool"
        }
      ],
      "stateMutability": "view",
      "type": "function"
    },
    {
      "inputs": [],
      "name": "owner",
      "outputs": [
        {
          "internalType": "address",
          "name": "",
          "type": "address"
        }
      ],
      "stateMutability": "view",
      "type": "function"
    },
    {
      "inputs": [],
      "name": "renounceOwnership",
      "outputs": [],
      "stateMutability": "nonpayable",
      "type": "function"
    },
    {
      "inputs": [
        {
          "internalType": "contract ITraidingAccount",
          "name": "newTraidingAccount",
          "type": "address"
        }
      ],
      "name": "setTraidingAccount",
      "outputs": [],
      "stateMutability": "nonpayable",
      "type": "function"
    },
    {
      "inputs": [
        {
          "internalType": "contract IERC20",
          "name": "newusdc",
          "type": "address"
        }
      ],
      "name": "setUSDC",
      "outputs": [],
      "stateMutability": "nonpayable",
      "type": "function"
    },
    {
      "inputs": [
        {
          "internalType": "address",
          "name": "newOwner",
          "type": "address"
        }
      ],
      "name": "transferOwnership",
      "outputs": [],
      "stateMutability": "nonpayable",
      "type": "function"
    }
  ],
  "bytecode": "0x60806040523480156200001157600080fd5b5060405162002337380380620023378339818101604052810190620000379190620002d0565b33600073ffffffffffffffffffffffffffffffffffffffff168173ffffffffffffffffffffffffffffffffffffffff1603620000ad5760006040517f1e4fbdf7000000000000000000000000000000000000000000000000000000008152600401620000a4919062000328565b60405180910390fd5b620000be816200014960201b60201c565b5080600260006101000a81548173ffffffffffffffffffffffffffffffffffffffff021916908373ffffffffffffffffffffffffffffffffffffffff16021790555081600160006101000a81548173ffffffffffffffffffffffffffffffffffffffff021916908373ffffffffffffffffffffffffffffffffffffffff160217905550505062000345565b60008060009054906101000a900473ffffffffffffffffffffffffffffffffffffffff169050816000806101000a81548173ffffffffffffffffffffffffffffffffffffffff021916908373ffffffffffffffffffffffffffffffffffffffff1602179055508173ffffffffffffffffffffffffffffffffffffffff168173ffffffffffffffffffffffffffffffffffffffff167f8be0079c531659141344cd1fd0a4f28419497f9722a3daafe3b4186f6b6457e060405160405180910390a35050565b600080fd5b600073ffffffffffffffffffffffffffffffffffffffff82169050919050565b60006200023f8262000212565b9050919050565b6000620002538262000232565b9050919050565b620002658162000246565b81146200027157600080fd5b50565b60008151905062000285816200025a565b92915050565b6000620002988262000232565b9050919050565b620002aa816200028b565b8114620002b657600080fd5b50565b600081519050620002ca816200029f565b92915050565b60008060408385031215620002ea57620002e96200020d565b5b6000620002fa8582860162000274565b92505060206200030d85828601620002b9565b9150509250929050565b620003228162000232565b82525050565b60006020820190506200033f600083018462000317565b92915050565b611fe280620003556000396000f3fe60806040523480156200001157600080fd5b5060043610620000885760003560e01c80638da5cb5b11620000635780638da5cb5b14620000ef578063b3e089a21462000111578063cab139151462000131578063f2fde38b14620001515762000088565b806311819613146200008d5780631a98449514620000c3578063715018a614620000e3575b600080fd5b620000ab6004803603810190620000a5919062000656565b62000171565b604051620000ba9190620006a5565b60405180910390f35b620000e16004803603810190620000db91906200071b565b620001c7565b005b620000ed62000215565b005b620000f96200022d565b6040516200010891906200075e565b60405180910390f35b6200012f6004803603810190620001299190620007c0565b62000256565b005b6200014f60048036038101906200014991906200082d565b620002a4565b005b6200016f600480360381019062000169919062000890565b620003e1565b005b6000600360008373ffffffffffffffffffffffffffffffffffffffff1673ffffffffffffffffffffffffffffffffffffffff16815260200190815260200160002060009054906101000a900460ff169050919050565b620001d16200046e565b80600260006101000a81548173ffffffffffffffffffffffffffffffffffffffff021916908373ffffffffffffffffffffffffffffffffffffffff16021790555050565b6200021f6200046e565b6200022b6000620004fe565b565b60008060009054906101000a900473ffffffffffffffffffffffffffffffffffffffff16905090565b620002606200046e565b80600160006101000a81548173ffffffffffffffffffffffffffffffffffffffff021916908373ffffffffffffffffffffffffffffffffffffffff16021790555050565b600033600160009054906101000a900473ffffffffffffffffffffffffffffffffffffffff1683600260009054906101000a900473ffffffffffffffffffffffffffffffffffffffff16604051620002fc90620005ca565b6200030b949392919062000963565b604051809103906000f08015801562000328573d6000803e3d6000fd5b5090506001600360008373ffffffffffffffffffffffffffffffffffffffff1673ffffffffffffffffffffffffffffffffffffffff16815260200190815260200160002060006101000a81548160ff0219169083151502179055503373ffffffffffffffffffffffffffffffffffffffff168173ffffffffffffffffffffffffffffffffffffffff167f9c17294160d1ae9f8e0ffb201446af7ff7f74c645db3ca65d09b51b115cb3df060405160405180910390a35050565b620003eb6200046e565b600073ffffffffffffffffffffffffffffffffffffffff168173ffffffffffffffffffffffffffffffffffffffff1603620004605760006040517f1e4fbdf70000000000000000000000000000000000000000000000000000000081526004016200045791906200075e565b60405180910390fd5b6200046b81620004fe565b50565b62000478620005c2565b73ffffffffffffffffffffffffffffffffffffffff16620004986200022d565b73ffffffffffffffffffffffffffffffffffffffff1614620004fc57620004be620005c2565b6040517f118cdaa7000000000000000000000000000000000000000000000000000000008152600401620004f391906200075e565b60405180910390fd5b565b60008060009054906101000a900473ffffffffffffffffffffffffffffffffffffffff169050816000806101000a81548173ffffffffffffffffffffffffffffffffffffffff021916908373ffffffffffffffffffffffffffffffffffffffff1602179055508173ffffffffffffffffffffffffffffffffffffffff168173ffffffffffffffffffffffffffffffffffffffff167f8be0079c531659141344cd1fd0a4f28419497f9722a3daafe3b4186f6b6457e060405160405180910390a35050565b600033905090565b6115fc80620009b183390190565b600080fd5b600073ffffffffffffffffffffffffffffffffffffffff82169050919050565b60006200060a82620005dd565b9050919050565b60006200061e82620005fd565b9050919050565b620006308162000611565b81146200063c57600080fd5b50565b600081359050620006508162000625565b92915050565b6000602082840312156200066f576200066e620005d8565b5b60006200067f848285016200063f565b91505092915050565b60008115159050919050565b6200069f8162000688565b82525050565b6000602082019050620006bc600083018462000694565b92915050565b6000620006cf82620005dd565b9050919050565b6000620006e382620006c2565b9050919050565b620006f581620006d6565b81146200070157600080fd5b50565b6000813590506200071581620006ea565b92915050565b600060208284031215620007345762000733620005d8565b5b6000620007448482850162000704565b91505092915050565b6200075881620006c2565b82525050565b60006020820190506200077560008301846200074d565b92915050565b60006200078882620006c2565b9050919050565b6200079a816200077b565b8114620007a657600080fd5b50565b600081359050620007ba816200078f565b92915050565b600060208284031215620007d957620007d8620005d8565b5b6000620007e984828501620007a9565b91505092915050565b6000819050919050565b6200080781620007f2565b81146200081357600080fd5b50565b6000813590506200082781620007fc565b92915050565b600060208284031215620008465762000845620005d8565b5b6000620008568482850162000816565b91505092915050565b6200086a81620006c2565b81146200087657600080fd5b50565b6000813590506200088a816200085f565b92915050565b600060208284031215620008a957620008a8620005d8565b5b6000620008b98482850162000879565b91505092915050565b6000819050919050565b6000620008ed620008e7620008e184620005dd565b620008c2565b620005dd565b9050919050565b60006200090182620008cc565b9050919050565b60006200091582620008f4565b9050919050565b620009278162000908565b82525050565b6200093881620007f2565b82525050565b60006200094b82620008f4565b9050919050565b6200095d816200093e565b82525050565b60006080820190506200097a60008301876200074d565b6200098960208301866200091c565b6200099860408301856200092d565b620009a7606083018462000952565b9594505050505056fe6080604052600560005560006001556000600260006101000a81548160ff0219169083151502179055503480156200003657600080fd5b50604051620015fc380380620015fc83398181016040528101906200005c9190620002a6565b600073ffffffffffffffffffffffffffffffffffffffff168473ffffffffffffffffffffffffffffffffffffffff16036200009657600080fd5b83600560006101000a81548173ffffffffffffffffffffffffffffffffffffffff021916908373ffffffffffffffffffffffffffffffffffffffff16021790555080600860006101000a81548173ffffffffffffffffffffffffffffffffffffffff021916908373ffffffffffffffffffffffffffffffffffffffff16021790555082600760006101000a81548173ffffffffffffffffffffffffffffffffffffffff021916908373ffffffffffffffffffffffffffffffffffffffff160217905550814262000167919062000347565b6003819055505050505062000382565b600080fd5b600073ffffffffffffffffffffffffffffffffffffffff82169050919050565b6000620001a9826200017c565b9050919050565b620001bb816200019c565b8114620001c757600080fd5b50565b600081519050620001db81620001b0565b92915050565b6000620001ee826200019c565b9050919050565b6200020081620001e1565b81146200020c57600080fd5b50565b6000815190506200022081620001f5565b92915050565b6000819050919050565b6200023b8162000226565b81146200024757600080fd5b50565b6000815190506200025b8162000230565b92915050565b60006200026e826200019c565b9050919050565b620002808162000261565b81146200028c57600080fd5b50565b600081519050620002a08162000275565b92915050565b60008060008060808587031215620002c357620002c262000177565b5b6000620002d387828801620001ca565b9450506020620002e6878288016200020f565b9350506040620002f9878288016200024a565b92505060606200030c878288016200028f565b91505092959194509250565b7f4e487b7100000000000000000000000000000000000000000000000000000000600052601160045260246000fd5b6000620003548262000226565b9150620003618362000226565b92508282019050808211156200037c576200037b62000318565b5b92915050565b61126a80620003926000396000f3fe6080604052600436106100ab5760003560e01c806354bf85121161006457806354bf85121461017b57806377212ead146101a6578063cb72759d146101d1578063cf73a1bc146101fa578063d50bcc7114610225578063fe95b2a514610262576100b2565b806305813266146100b757806312065fe0146100ce57806319805538146100f95780632e2ebe06146101245780633ccfd60b1461014d5780633e6ad96014610164576100b2565b366100b257005b600080fd5b3480156100c357600080fd5b506100cc61028b565b005b3480156100da57600080fd5b506100e3610334565b6040516100f09190610cdb565b60405180910390f35b34801561010557600080fd5b5061010e61033e565b60405161011b9190610cdb565b60405180910390f35b34801561013057600080fd5b5061014b60048036038101906101469190610d27565b610348565b005b34801561015957600080fd5b506101626104a1565b005b34801561017057600080fd5b5061017961068e565b005b34801561018757600080fd5b506101906106ef565b60405161019d9190610cdb565b60405180910390f35b3480156101b257600080fd5b506101bb610943565b6040516101c89190610d6f565b60405180910390f35b3480156101dd57600080fd5b506101f860048036038101906101f39190610d27565b61095a565b005b34801561020657600080fd5b5061020f610a70565b60405161021c9190610dcb565b60405180910390f35b34801561023157600080fd5b5061024c60048036038101906102479190610e12565b610a96565b6040516102599190610cdb565b60405180910390f35b34801561026e57600080fd5b5061028960048036038101906102849190610d27565b610adf565b005b600860009054906101000a900473ffffffffffffffffffffffffffffffffffffffff1673ffffffffffffffffffffffffffffffffffffffff166350f0a08b476040518263ffffffff1660e01b81526004016000604051808303818588803b1580156102f557600080fd5b505af1158015610309573d6000803e3d6000fd5b50505050506103166106ef565b506000600260006101000a81548160ff021916908315150217905550565b6000600154905090565b6000600654905090565b600354421061038c576040517f08c379a000000000000000000000000000000000000000000000000000000000815260040161038390610e9c565b60405180910390fd5b80600960003373ffffffffffffffffffffffffffffffffffffffff1673ffffffffffffffffffffffffffffffffffffffff16815260200190815260200160002060008282546103db9190610eeb565b9250508190555080600160008282546103f49190610eeb565b92505081905550600760009054906101000a900473ffffffffffffffffffffffffffffffffffffffff1673ffffffffffffffffffffffffffffffffffffffff166323b872dd3330846040518463ffffffff1660e01b815260040161045a93929190610f1f565b6020604051808303816000875af1158015610479573d6000803e3d6000fd5b505050506040513d601f19601f8201168201806040525081019061049d9190610f82565b5050565b6000600654600760009054906101000a900473ffffffffffffffffffffffffffffffffffffffff1673ffffffffffffffffffffffffffffffffffffffff166370a08231306040518263ffffffff1660e01b81526004016105019190610dcb565b602060405180830381865afa15801561051e573d6000803e3d6000fd5b505050506040513d601f19601f820116820180604052508101906105429190610fc4565b61054c9190610ff1565b600154600960003373ffffffffffffffffffffffffffffffffffffffff1673ffffffffffffffffffffffffffffffffffffffff168152602001908152602001600020546105999190611054565b6105a39190611085565b90506000600960003373ffffffffffffffffffffffffffffffffffffffff1673ffffffffffffffffffffffffffffffffffffffff16815260200190815260200160002081905550600760009054906101000a900473ffffffffffffffffffffffffffffffffffffffff1673ffffffffffffffffffffffffffffffffffffffff1663a9059cbb33836040518363ffffffff1660e01b81526004016106479291906110c7565b6020604051808303816000875af1158015610666573d6000803e3d6000fd5b505050506040513d601f19601f8201168201806040525081019061068a9190610f82565b5050565b60035442116106d2576040517f08c379a00000000000000000000000000000000000000000000000000000000081526004016106c99061113c565b60405180910390fd5b6001600260006101000a81548160ff021916908315150217905550565b6000600154600760009054906101000a900473ffffffffffffffffffffffffffffffffffffffff1673ffffffffffffffffffffffffffffffffffffffff166370a08231306040518263ffffffff1660e01b815260040161074f9190610dcb565b602060405180830381865afa15801561076c573d6000803e3d6000fd5b505050506040513d601f19601f820116820180604052508101906107909190610fc4565b116107a75760006006819055506006549050610940565b6000600154600760009054906101000a900473ffffffffffffffffffffffffffffffffffffffff1673ffffffffffffffffffffffffffffffffffffffff166370a08231306040518263ffffffff1660e01b81526004016108079190610dcb565b602060405180830381865afa158015610824573d6000803e3d6000fd5b505050506040513d601f19601f820116820180604052508101906108489190610fc4565b6108529190610ff1565b90506000546064826108649190611054565b61086e9190611085565b600681905550600760009054906101000a900473ffffffffffffffffffffffffffffffffffffffff1673ffffffffffffffffffffffffffffffffffffffff1663a9059cbb600560009054906101000a900473ffffffffffffffffffffffffffffffffffffffff166006546040518363ffffffff1660e01b81526004016108f59291906110c7565b6020604051808303816000875af1158015610914573d6000803e3d6000fd5b505050506040513d601f19601f820116820180604052508101906109389190610f82565b506006549150505b90565b6000600260009054906101000a900460ff16905090565b3373ffffffffffffffffffffffffffffffffffffffff16600560009054906101000a900473ffffffffffffffffffffffffffffffffffffffff1673ffffffffffffffffffffffffffffffffffffffff16146109ea576040517f08c379a00000000000000000000000000000000000000000000000000000000081526004016109e1906111a8565b60405180910390fd5b600860009054906101000a900473ffffffffffffffffffffffffffffffffffffffff1673ffffffffffffffffffffffffffffffffffffffff166350f0a08b826040518263ffffffff1660e01b81526004016000604051808303818588803b158015610a5457600080fd5b505af1158015610a68573d6000803e3d6000fd5b505050505050565b600560009054906101000a900473ffffffffffffffffffffffffffffffffffffffff1681565b6000600960008373ffffffffffffffffffffffffffffffffffffffff1673ffffffffffffffffffffffffffffffffffffffff168152602001908152602001600020549050919050565b3373ffffffffffffffffffffffffffffffffffffffff16600560009054906101000a900473ffffffffffffffffffffffffffffffffffffffff1673ffffffffffffffffffffffffffffffffffffffff1614610b6f576040517f08c379a0000000000000000000000000000000000000000000000000000000008152600401610b6690611214565b60405180910390fd5b600760009054906101000a900473ffffffffffffffffffffffffffffffffffffffff1673ffffffffffffffffffffffffffffffffffffffff1663095ea7b3600860009054906101000a900473ffffffffffffffffffffffffffffffffffffffff16836040518363ffffffff1660e01b8152600401610bee9291906110c7565b6020604051808303816000875af1158015610c0d573d6000803e3d6000fd5b505050506040513d601f19601f82011682018060405250810190610c319190610f82565b50600860009054906101000a900473ffffffffffffffffffffffffffffffffffffffff1673ffffffffffffffffffffffffffffffffffffffff1663f16c03bc826040518263ffffffff1660e01b8152600401610c8d9190610cdb565b600060405180830381600087803b158015610ca757600080fd5b505af1158015610cbb573d6000803e3d6000fd5b5050505050565b6000819050919050565b610cd581610cc2565b82525050565b6000602082019050610cf06000830184610ccc565b92915050565b600080fd5b610d0481610cc2565b8114610d0f57600080fd5b50565b600081359050610d2181610cfb565b92915050565b600060208284031215610d3d57610d3c610cf6565b5b6000610d4b84828501610d12565b91505092915050565b60008115159050919050565b610d6981610d54565b82525050565b6000602082019050610d846000830184610d60565b92915050565b600073ffffffffffffffffffffffffffffffffffffffff82169050919050565b6000610db582610d8a565b9050919050565b610dc581610daa565b82525050565b6000602082019050610de06000830184610dbc565b92915050565b610def81610daa565b8114610dfa57600080fd5b50565b600081359050610e0c81610de6565b92915050565b600060208284031215610e2857610e27610cf6565b5b6000610e3684828501610dfd565b91505092915050565b600082825260208201905092915050565b7f66756e64726973696e67207761732066696e6973686564000000000000000000600082015250565b6000610e86601783610e3f565b9150610e9182610e50565b602082019050919050565b60006020820190508181036000830152610eb581610e79565b9050919050565b7f4e487b7100000000000000000000000000000000000000000000000000000000600052601160045260246000fd5b6000610ef682610cc2565b9150610f0183610cc2565b9250828201905080821115610f1957610f18610ebc565b5b92915050565b6000606082019050610f346000830186610dbc565b610f416020830185610dbc565b610f4e6040830184610ccc565b949350505050565b610f5f81610d54565b8114610f6a57600080fd5b50565b600081519050610f7c81610f56565b92915050565b600060208284031215610f9857610f97610cf6565b5b6000610fa684828501610f6d565b91505092915050565b600081519050610fbe81610cfb565b92915050565b600060208284031215610fda57610fd9610cf6565b5b6000610fe884828501610faf565b91505092915050565b6000610ffc82610cc2565b915061100783610cc2565b925082820390508181111561101f5761101e610ebc565b5b92915050565b7f4e487b7100000000000000000000000000000000000000000000000000000000600052601260045260246000fd5b600061105f82610cc2565b915061106a83610cc2565b92508261107a57611079611025565b5b828204905092915050565b600061109082610cc2565b915061109b83610cc2565b92508282026110a981610cc2565b915082820484148315176110c0576110bf610ebc565b5b5092915050565b60006040820190506110dc6000830185610dbc565b6110e96020830184610ccc565b9392505050565b7f6563686f206e656c7a757920746f72676f766174000000000000000000000000600082015250565b6000611126601483610e3f565b9150611131826110f0565b602082019050919050565b6000602082019050818103600083015261115581611119565b9050919050565b7f6572726f722065746820746f2075736463000000000000000000000000000000600082015250565b6000611192601183610e3f565b915061119d8261115c565b602082019050919050565b600060208201905081810360008301526111c181611185565b9050919050565b7f6572726f72207573646320746f20657468000000000000000000000000000000600082015250565b60006111fe601183610e3f565b9150611209826111c8565b602082019050919050565b6000602082019050818103600083015261122d816111f1565b905091905056fea26469706673582212206670d22f17670a8b26770d3401c8a77171a170c4e6aaaaf6ed4e854207bba53964736f6c63430008140033a264697066735822122032fa14d3290d6d2fdfd3ccefae0df47e7a6c2a2546e30153367266122bbcff1064736f6c63430008140033",
  "linkReferences": {},
  "deployedLinkReferences": {}
}