{
  "_format": "hh-sol-artifact-1",
  "contractName": "LiquidityPool",
  "sourceName": "contracts/LiquidityPool.sol",
  "abi": [
    {
      "inputs": [
        {
          "internalType": "address",
          "name": "manager",
          "type": "address"
        },
        {
          "internalType": "contract IERC20",
          "name": "_USDC",
          "type": "address"
        },
        {
          "internalType": "uint256",
          "name": "fundrisingDuration",
          "type": "uint256"
        },
        {
          "internalType": "uint256",
          "name": "timeForTraiding",
          "type": "uint256"
        },
        {
          "internalType": "contract ITraidingAccount",
          "name": "traidAc",
          "type": "address"
        }
      ],
      "stateMutability": "nonpayable",
      "type": "constructor"
    },
    {
      "anonymous": false,
      "inputs": [
        {
          "indexed": true,
          "internalType": "address",
          "name": "owner",
          "type": "address"
        },
        {
          "indexed": false,
          "internalType": "uint256",
          "name": "managerFee",
          "type": "uint256"
        }
      ],
      "name": "managerfeeCalculated",
      "type": "event"
    },
    {
      "anonymous": false,
      "inputs": [
        {
          "indexed": true,
          "internalType": "address",
          "name": "owner",
          "type": "address"
        },
        {
          "indexed": false,
          "internalType": "uint256",
          "name": "amountToken",
          "type": "uint256"
        }
      ],
      "name": "ownerProvidedToken",
      "type": "event"
    },
    {
      "anonymous": false,
      "inputs": [
        {
          "indexed": true,
          "internalType": "address",
          "name": "owner",
          "type": "address"
        },
        {
          "indexed": false,
          "internalType": "uint256",
          "name": "amountToken",
          "type": "uint256"
        }
      ],
      "name": "ownerWithDrawToken",
      "type": "event"
    },
    {
      "inputs": [],
      "name": "balance",
      "outputs": [
        {
          "internalType": "uint256",
          "name": "",
          "type": "uint256"
        }
      ],
      "stateMutability": "view",
      "type": "function"
    },
    {
      "inputs": [],
      "name": "calculateManagerFee",
      "outputs": [
        {
          "internalType": "uint256",
          "name": "",
          "type": "uint256"
        }
      ],
      "stateMutability": "nonpayable",
      "type": "function"
    },
    {
      "inputs": [],
      "name": "canTraiding",
      "outputs": [
        {
          "internalType": "bool",
          "name": "",
          "type": "bool"
        }
      ],
      "stateMutability": "view",
      "type": "function"
    },
    {
      "inputs": [],
      "name": "closeTraiding",
      "outputs": [],
      "stateMutability": "nonpayable",
      "type": "function"
    },
    {
      "inputs": [],
      "name": "finalbalance",
      "outputs": [
        {
          "internalType": "uint256",
          "name": "",
          "type": "uint256"
        }
      ],
      "stateMutability": "view",
      "type": "function"
    },
    {
      "inputs": [],
      "name": "fundrisingStopTime",
      "outputs": [
        {
          "internalType": "uint256",
          "name": "",
          "type": "uint256"
        }
      ],
      "stateMutability": "view",
      "type": "function"
    },
    {
      "inputs": [
        {
          "internalType": "address",
          "name": "_address",
          "type": "address"
        }
      ],
      "name": "getOwnerTokenCount",
      "outputs": [
        {
          "internalType": "uint256",
          "name": "",
          "type": "uint256"
        }
      ],
      "stateMutability": "view",
      "type": "function"
    },
    {
      "inputs": [],
      "name": "managerAddress",
      "outputs": [
        {
          "internalType": "address",
          "name": "",
          "type": "address"
        }
      ],
      "stateMutability": "view",
      "type": "function"
    },
    {
      "inputs": [],
      "name": "managerFee",
      "outputs": [
        {
          "internalType": "uint256",
          "name": "",
          "type": "uint256"
        }
      ],
      "stateMutability": "view",
      "type": "function"
    },
    {
      "inputs": [],
      "name": "perfomanseFee",
      "outputs": [
        {
          "internalType": "uint256",
          "name": "",
          "type": "uint256"
        }
      ],
      "stateMutability": "view",
      "type": "function"
    },
    {
      "inputs": [
        {
          "internalType": "uint256",
          "name": "amountToken",
          "type": "uint256"
        }
      ],
      "name": "provide",
      "outputs": [],
      "stateMutability": "nonpayable",
      "type": "function"
    },
    {
      "inputs": [],
      "name": "startTraiding",
      "outputs": [],
      "stateMutability": "nonpayable",
      "type": "function"
    },
    {
      "inputs": [
        {
          "internalType": "uint256",
          "name": "amountToken",
          "type": "uint256"
        }
      ],
      "name": "swapETHtoUSDC",
      "outputs": [],
      "stateMutability": "nonpayable",
      "type": "function"
    },
    {
      "inputs": [
        {
          "internalType": "uint256",
          "name": "amountToken",
          "type": "uint256"
        }
      ],
      "name": "swapUSDCtoETH",
      "outputs": [],
      "stateMutability": "nonpayable",
      "type": "function"
    },
    {
      "inputs": [],
      "name": "timeForStopTraiding",
      "outputs": [
        {
          "internalType": "uint256",
          "name": "",
          "type": "uint256"
        }
      ],
      "stateMutability": "view",
      "type": "function"
    },
    {
      "inputs": [],
      "name": "timeForWithdraw",
      "outputs": [
        {
          "internalType": "uint256",
          "name": "",
          "type": "uint256"
        }
      ],
      "stateMutability": "view",
      "type": "function"
    },
    {
      "inputs": [],
      "name": "withdraw",
      "outputs": [],
      "stateMutability": "nonpayable",
      "type": "function"
    },
    {
      "stateMutability": "payable",
      "type": "receive"
    }
  ],
  "bytecode": "0x60806040526005600055600060015560006002556000600360006101000a81548160ff0219169083151502179055503480156200003b57600080fd5b5060405162001c5e38038062001c5e8339818101604052810190620000619190620002c2565b600073ffffffffffffffffffffffffffffffffffffffff168573ffffffffffffffffffffffffffffffffffffffff16036200009b57600080fd5b84600760006101000a81548173ffffffffffffffffffffffffffffffffffffffff021916908373ffffffffffffffffffffffffffffffffffffffff16021790555080600a60006101000a81548173ffffffffffffffffffffffffffffffffffffffff021916908373ffffffffffffffffffffffffffffffffffffffff16021790555083600960006101000a81548173ffffffffffffffffffffffffffffffffffffffff021916908373ffffffffffffffffffffffffffffffffffffffff16021790555082426200016c919062000379565b6004819055508160045462000182919062000379565b6006819055505050505050620003b4565b600080fd5b600073ffffffffffffffffffffffffffffffffffffffff82169050919050565b6000620001c58262000198565b9050919050565b620001d781620001b8565b8114620001e357600080fd5b50565b600081519050620001f781620001cc565b92915050565b60006200020a82620001b8565b9050919050565b6200021c81620001fd565b81146200022857600080fd5b50565b6000815190506200023c8162000211565b92915050565b6000819050919050565b620002578162000242565b81146200026357600080fd5b50565b60008151905062000277816200024c565b92915050565b60006200028a82620001b8565b9050919050565b6200029c816200027d565b8114620002a857600080fd5b50565b600081519050620002bc8162000291565b92915050565b600080600080600060a08688031215620002e157620002e062000193565b5b6000620002f188828901620001e6565b955050602062000304888289016200022b565b9450506040620003178882890162000266565b93505060606200032a8882890162000266565b92505060806200033d88828901620002ab565b9150509295509295909350565b7f4e487b7100000000000000000000000000000000000000000000000000000000600052601160045260246000fd5b6000620003868262000242565b9150620003938362000242565b9250828201905080821115620003ae57620003ad6200034a565b5b92915050565b61189a80620003c46000396000f3fe6080604052600436106101025760003560e01c80638498ff6811610095578063cb72759d11610064578063cb72759d146102d4578063cf73a1bc146102fd578063d50bcc7114610328578063da78a7e314610365578063fe95b2a51461039057610109565b80638498ff68146102285780639c7632fc14610253578063b69ef8a81461027e578063c0c41b52146102a957610109565b80633ccfd60b116100d15780633ccfd60b146101a45780633e6ad960146101bb57806354bf8512146101d2578063848f7b44146101fd57610109565b8063058132661461010e578063076bc8551461012557806320616967146101505780632e2ebe061461017b57610109565b3661010957005b600080fd5b34801561011a57600080fd5b506101236103b9565b005b34801561013157600080fd5b5061013a610548565b604051610147919061115b565b60405180910390f35b34801561015c57600080fd5b5061016561054e565b604051610172919061115b565b60405180910390f35b34801561018757600080fd5b506101a2600480360381019061019d91906111a7565b610554565b005b3480156101b057600080fd5b506101b96106fb565b005b3480156101c757600080fd5b506101d06108d4565b005b3480156101de57600080fd5b506101e7610a09565b6040516101f4919061115b565b60405180910390f35b34801561020957600080fd5b50610212610cfd565b60405161021f919061115b565b60405180910390f35b34801561023457600080fd5b5061023d610d03565b60405161024a919061115b565b60405180910390f35b34801561025f57600080fd5b50610268610d09565b604051610275919061115b565b60405180910390f35b34801561028a57600080fd5b50610293610d0f565b6040516102a0919061115b565b60405180910390f35b3480156102b557600080fd5b506102be610d15565b6040516102cb91906111ef565b60405180910390f35b3480156102e057600080fd5b506102fb60048036038101906102f691906111a7565b610d28565b005b34801561030957600080fd5b50610312610e94565b60405161031f919061124b565b60405180910390f35b34801561033457600080fd5b5061034f600480360381019061034a9190611292565b610eba565b60405161035c919061115b565b60405180910390f35b34801561037157600080fd5b5061037a610f03565b604051610387919061115b565b60405180910390f35b34801561039c57600080fd5b506103b760048036038101906103b291906111a7565b610f09565b005b60065442116103fd576040517f08c379a00000000000000000000000000000000000000000000000000000000081526004016103f49061131c565b60405180910390fd5b600a60009054906101000a900473ffffffffffffffffffffffffffffffffffffffff1673ffffffffffffffffffffffffffffffffffffffff166350f0a08b476040518263ffffffff1660e01b81526004016000604051808303818588803b15801561046757600080fd5b505af115801561047b573d6000803e3d6000fd5b5050505050610488610a09565b50600960009054906101000a900473ffffffffffffffffffffffffffffffffffffffff1673ffffffffffffffffffffffffffffffffffffffff166370a08231306040518263ffffffff1660e01b81526004016104e4919061124b565b602060405180830381865afa158015610501573d6000803e3d6000fd5b505050506040513d601f19601f820116820180604052508101906105259190611351565b6002819055506000600360006101000a81548160ff021916908315150217905550565b60005481565b60025481565b6004544210610598576040517f08c379a000000000000000000000000000000000000000000000000000000000815260040161058f906113ca565b60405180910390fd5b80600b60003373ffffffffffffffffffffffffffffffffffffffff1673ffffffffffffffffffffffffffffffffffffffff16815260200190815260200160002060008282546105e79190611419565b9250508190555080600160008282546106009190611419565b92505081905550600960009054906101000a900473ffffffffffffffffffffffffffffffffffffffff1673ffffffffffffffffffffffffffffffffffffffff166323b872dd3330846040518463ffffffff1660e01b81526004016106669392919061144d565b6020604051808303816000875af1158015610685573d6000803e3d6000fd5b505050506040513d601f19601f820116820180604052508101906106a991906114b0565b503373ffffffffffffffffffffffffffffffffffffffff167f4a22dc040204dc3b4c23d59337813142c712ad0dfdf530ad27fd3e72de3bf77b826040516106f0919061115b565b60405180910390a250565b600654421161073f576040517f08c379a00000000000000000000000000000000000000000000000000000000081526004016107369061131c565b60405180910390fd5b6000600154600b60003373ffffffffffffffffffffffffffffffffffffffff1673ffffffffffffffffffffffffffffffffffffffff1681526020019081526020016000205460025461079191906114dd565b61079b919061154e565b90506000600b60003373ffffffffffffffffffffffffffffffffffffffff1673ffffffffffffffffffffffffffffffffffffffff16815260200190815260200160002081905550600960009054906101000a900473ffffffffffffffffffffffffffffffffffffffff1673ffffffffffffffffffffffffffffffffffffffff1663a9059cbb33836040518363ffffffff1660e01b815260040161083f92919061157f565b6020604051808303816000875af115801561085e573d6000803e3d6000fd5b505050506040513d601f19601f8201168201806040525081019061088291906114b0565b503373ffffffffffffffffffffffffffffffffffffffff167f774564cdeb2eed3fea82edc31d04b2e1451256f6b726da108f32a53f4307ef48826040516108c9919061115b565b60405180910390a250565b3373ffffffffffffffffffffffffffffffffffffffff16600760009054906101000a900473ffffffffffffffffffffffffffffffffffffffff1673ffffffffffffffffffffffffffffffffffffffff1614610964576040517f08c379a000000000000000000000000000000000000000000000000000000000815260040161095b906115f4565b60405180910390fd5b60045442116109a8576040517f08c379a000000000000000000000000000000000000000000000000000000000815260040161099f90611660565b60405180910390fd5b60065442106109ec576040517f08c379a00000000000000000000000000000000000000000000000000000000081526004016109e3906116cc565b60405180910390fd5b6001600360006101000a81548160ff021916908315150217905550565b6000600154600960009054906101000a900473ffffffffffffffffffffffffffffffffffffffff1673ffffffffffffffffffffffffffffffffffffffff166370a08231306040518263ffffffff1660e01b8152600401610a69919061124b565b602060405180830381865afa158015610a86573d6000803e3d6000fd5b505050506040513d601f19601f82011682018060405250810190610aaa9190611351565b11610b115760006008819055503373ffffffffffffffffffffffffffffffffffffffff167f33b3d98265f0a5c5a0c3d53550312d300dbbe60c46ef0a99e8cb750af61611ec600854604051610aff919061115b565b60405180910390a26008549050610cfa565b6000600154600960009054906101000a900473ffffffffffffffffffffffffffffffffffffffff1673ffffffffffffffffffffffffffffffffffffffff166370a08231306040518263ffffffff1660e01b8152600401610b71919061124b565b602060405180830381865afa158015610b8e573d6000803e3d6000fd5b505050506040513d601f19601f82011682018060405250810190610bb29190611351565b610bbc91906116ec565b9050606460005482610bce91906114dd565b610bd8919061154e565b600881905550600960009054906101000a900473ffffffffffffffffffffffffffffffffffffffff1673ffffffffffffffffffffffffffffffffffffffff1663a9059cbb600760009054906101000a900473ffffffffffffffffffffffffffffffffffffffff166008546040518363ffffffff1660e01b8152600401610c5f92919061157f565b6020604051808303816000875af1158015610c7e573d6000803e3d6000fd5b505050506040513d601f19601f82011682018060405250810190610ca291906114b0565b503373ffffffffffffffffffffffffffffffffffffffff167f33b3d98265f0a5c5a0c3d53550312d300dbbe60c46ef0a99e8cb750af61611ec600854604051610ceb919061115b565b60405180910390a26008549150505b90565b60045481565b60055481565b60085481565b60015481565b600360009054906101000a900460ff1681565b3373ffffffffffffffffffffffffffffffffffffffff16600760009054906101000a900473ffffffffffffffffffffffffffffffffffffffff1673ffffffffffffffffffffffffffffffffffffffff1614610db8576040517f08c379a0000000000000000000000000000000000000000000000000000000008152600401610daf9061176c565b60405180910390fd5b60011515600360009054906101000a900460ff16151514610e0e576040517f08c379a0000000000000000000000000000000000000000000000000000000008152600401610e05906117d8565b60405180910390fd5b600a60009054906101000a900473ffffffffffffffffffffffffffffffffffffffff1673ffffffffffffffffffffffffffffffffffffffff166350f0a08b826040518263ffffffff1660e01b81526004016000604051808303818588803b158015610e7857600080fd5b505af1158015610e8c573d6000803e3d6000fd5b505050505050565b600760009054906101000a900473ffffffffffffffffffffffffffffffffffffffff1681565b6000600b60008373ffffffffffffffffffffffffffffffffffffffff1673ffffffffffffffffffffffffffffffffffffffff168152602001908152602001600020549050919050565b60065481565b3373ffffffffffffffffffffffffffffffffffffffff16600760009054906101000a900473ffffffffffffffffffffffffffffffffffffffff1673ffffffffffffffffffffffffffffffffffffffff1614610f99576040517f08c379a0000000000000000000000000000000000000000000000000000000008152600401610f9090611844565b60405180910390fd5b60011515600360009054906101000a900460ff16151514610fef576040517f08c379a0000000000000000000000000000000000000000000000000000000008152600401610fe6906117d8565b60405180910390fd5b600960009054906101000a900473ffffffffffffffffffffffffffffffffffffffff1673ffffffffffffffffffffffffffffffffffffffff1663095ea7b3600a60009054906101000a900473ffffffffffffffffffffffffffffffffffffffff16836040518363ffffffff1660e01b815260040161106e92919061157f565b6020604051808303816000875af115801561108d573d6000803e3d6000fd5b505050506040513d601f19601f820116820180604052508101906110b191906114b0565b50600a60009054906101000a900473ffffffffffffffffffffffffffffffffffffffff1673ffffffffffffffffffffffffffffffffffffffff1663f16c03bc826040518263ffffffff1660e01b815260040161110d919061115b565b600060405180830381600087803b15801561112757600080fd5b505af115801561113b573d6000803e3d6000fd5b5050505050565b6000819050919050565b61115581611142565b82525050565b6000602082019050611170600083018461114c565b92915050565b600080fd5b61118481611142565b811461118f57600080fd5b50565b6000813590506111a18161117b565b92915050565b6000602082840312156111bd576111bc611176565b5b60006111cb84828501611192565b91505092915050565b60008115159050919050565b6111e9816111d4565b82525050565b600060208201905061120460008301846111e0565b92915050565b600073ffffffffffffffffffffffffffffffffffffffff82169050919050565b60006112358261120a565b9050919050565b6112458161122a565b82525050565b6000602082019050611260600083018461123c565b92915050565b61126f8161122a565b811461127a57600080fd5b50565b60008135905061128c81611266565b92915050565b6000602082840312156112a8576112a7611176565b5b60006112b68482850161127d565b91505092915050565b600082825260208201905092915050565b7f7374696c6c207068617365207472616964696e67000000000000000000000000600082015250565b60006113066014836112bf565b9150611311826112d0565b602082019050919050565b60006020820190508181036000830152611335816112f9565b9050919050565b60008151905061134b8161117b565b92915050565b60006020828403121561136757611366611176565b5b60006113758482850161133c565b91505092915050565b7f66756e64726973696e67207761732066696e6973686564000000000000000000600082015250565b60006113b46017836112bf565b91506113bf8261137e565b602082019050919050565b600060208201905081810360008301526113e3816113a7565b9050919050565b7f4e487b7100000000000000000000000000000000000000000000000000000000600052601160045260246000fd5b600061142482611142565b915061142f83611142565b9250828201905080821115611447576114466113ea565b5b92915050565b6000606082019050611462600083018661123c565b61146f602083018561123c565b61147c604083018461114c565b949350505050565b61148d816111d4565b811461149857600080fd5b50565b6000815190506114aa81611484565b92915050565b6000602082840312156114c6576114c5611176565b5b60006114d48482850161149b565b91505092915050565b60006114e882611142565b91506114f383611142565b925082820261150181611142565b91508282048414831517611518576115176113ea565b5b5092915050565b7f4e487b7100000000000000000000000000000000000000000000000000000000600052601260045260246000fd5b600061155982611142565b915061156483611142565b9250826115745761157361151f565b5b828204905092915050565b6000604082019050611594600083018561123c565b6115a1602083018461114c565b9392505050565b7f796f7520617265206e6f74206d616e6167657200000000000000000000000000600082015250565b60006115de6013836112bf565b91506115e9826115a8565b602082019050919050565b6000602082019050818103600083015261160d816115d1565b9050919050565b7f6563686f206e656c7a757920746f72676f766174000000000000000000000000600082015250565b600061164a6014836112bf565b915061165582611614565b602082019050919050565b600060208201905081810360008301526116798161163d565b9050919050565b7f7472616964696e67207761732066696e69736865640000000000000000000000600082015250565b60006116b66015836112bf565b91506116c182611680565b602082019050919050565b600060208201905081810360008301526116e5816116a9565b9050919050565b60006116f782611142565b915061170283611142565b925082820390508181111561171a576117196113ea565b5b92915050565b7f6572726f722065746820746f2075736463000000000000000000000000000000600082015250565b60006117566011836112bf565b915061176182611720565b602082019050919050565b6000602082019050818103600083015261178581611749565b9050919050565b7f74686973206973206e6f74207068617365207472616964696e67000000000000600082015250565b60006117c2601a836112bf565b91506117cd8261178c565b602082019050919050565b600060208201905081810360008301526117f1816117b5565b9050919050565b7f6572726f72207573646320746f20657468000000000000000000000000000000600082015250565b600061182e6011836112bf565b9150611839826117f8565b602082019050919050565b6000602082019050818103600083015261185d81611821565b905091905056fea2646970667358221220d13611d51b598f0b62d7e8954dfda8a443185c92002a3aaae81a314a13842bac64736f6c63430008140033",
  "linkReferences": {},
  "deployedLinkReferences": {}
}