{
  "_format": "hh-sol-artifact-1",
  "contractName": "LiquidityPool",
  "sourceName": "contracts/LiquidityPool.sol",
  "abi": [
    {
      "inputs": [
        {
          "internalType": "address",
          "name": "manager",
          "type": "address"
        },
        {
          "internalType": "contract IERC20",
          "name": "_USDC",
          "type": "address"
        },
        {
          "internalType": "uint256",
          "name": "fundrisingDuration",
          "type": "uint256"
        },
        {
          "internalType": "uint256",
          "name": "timeForTraiding",
          "type": "uint256"
        },
        {
          "internalType": "contract ITraidingAccount",
          "name": "traidAc",
          "type": "address"
        }
      ],
      "stateMutability": "nonpayable",
      "type": "constructor"
    },
    {
      "anonymous": false,
      "inputs": [
        {
          "indexed": true,
          "internalType": "address",
          "name": "owner",
          "type": "address"
        },
        {
          "indexed": false,
          "internalType": "uint256",
          "name": "managerFee",
          "type": "uint256"
        }
      ],
      "name": "managerfeeCalculated",
      "type": "event"
    },
    {
      "anonymous": false,
      "inputs": [
        {
          "indexed": true,
          "internalType": "address",
          "name": "owner",
          "type": "address"
        },
        {
          "indexed": false,
          "internalType": "uint256",
          "name": "amountToken",
          "type": "uint256"
        }
      ],
      "name": "ownerProvidedToken",
      "type": "event"
    },
    {
      "anonymous": false,
      "inputs": [
        {
          "indexed": true,
          "internalType": "address",
          "name": "owner",
          "type": "address"
        },
        {
          "indexed": false,
          "internalType": "uint256",
          "name": "amountToken",
          "type": "uint256"
        }
      ],
      "name": "ownerWithDrawToken",
      "type": "event"
    },
    {
      "inputs": [],
      "name": "balance",
      "outputs": [
        {
          "internalType": "uint256",
          "name": "",
          "type": "uint256"
        }
      ],
      "stateMutability": "view",
      "type": "function"
    },
    {
      "inputs": [],
      "name": "calculateManagerFee",
      "outputs": [
        {
          "internalType": "uint256",
          "name": "",
          "type": "uint256"
        }
      ],
      "stateMutability": "nonpayable",
      "type": "function"
    },
    {
      "inputs": [],
      "name": "canTraiding",
      "outputs": [
        {
          "internalType": "bool",
          "name": "",
          "type": "bool"
        }
      ],
      "stateMutability": "view",
      "type": "function"
    },
    {
      "inputs": [],
      "name": "closeTraiding",
      "outputs": [],
      "stateMutability": "nonpayable",
      "type": "function"
    },
    {
      "inputs": [],
      "name": "finalbalance",
      "outputs": [
        {
          "internalType": "uint256",
          "name": "",
          "type": "uint256"
        }
      ],
      "stateMutability": "view",
      "type": "function"
    },
    {
      "inputs": [],
      "name": "fundrisingStopTime",
      "outputs": [
        {
          "internalType": "uint256",
          "name": "",
          "type": "uint256"
        }
      ],
      "stateMutability": "view",
      "type": "function"
    },
    {
      "inputs": [
        {
          "internalType": "address",
          "name": "_address",
          "type": "address"
        }
      ],
      "name": "getOwnerTokenCount",
      "outputs": [
        {
          "internalType": "uint256",
          "name": "",
          "type": "uint256"
        }
      ],
      "stateMutability": "view",
      "type": "function"
    },
    {
      "inputs": [],
      "name": "managerAddress",
      "outputs": [
        {
          "internalType": "address",
          "name": "",
          "type": "address"
        }
      ],
      "stateMutability": "view",
      "type": "function"
    },
    {
      "inputs": [],
      "name": "managerFee",
      "outputs": [
        {
          "internalType": "uint256",
          "name": "",
          "type": "uint256"
        }
      ],
      "stateMutability": "view",
      "type": "function"
    },
    {
      "inputs": [],
      "name": "perfomanseFee",
      "outputs": [
        {
          "internalType": "uint256",
          "name": "",
          "type": "uint256"
        }
      ],
      "stateMutability": "view",
      "type": "function"
    },
    {
      "inputs": [
        {
          "internalType": "uint256",
          "name": "amountToken",
          "type": "uint256"
        }
      ],
      "name": "provide",
      "outputs": [],
      "stateMutability": "nonpayable",
      "type": "function"
    },
    {
      "inputs": [],
      "name": "startTraiding",
      "outputs": [],
      "stateMutability": "nonpayable",
      "type": "function"
    },
    {
      "inputs": [
        {
          "internalType": "uint256",
          "name": "amountToken",
          "type": "uint256"
        }
      ],
      "name": "swapETHtoUSDC",
      "outputs": [],
      "stateMutability": "nonpayable",
      "type": "function"
    },
    {
      "inputs": [
        {
          "internalType": "uint256",
          "name": "amountToken",
          "type": "uint256"
        }
      ],
      "name": "swapUSDCtoETH",
      "outputs": [],
      "stateMutability": "nonpayable",
      "type": "function"
    },
    {
      "inputs": [],
      "name": "timeForStopTraiding",
      "outputs": [
        {
          "internalType": "uint256",
          "name": "",
          "type": "uint256"
        }
      ],
      "stateMutability": "view",
      "type": "function"
    },
    {
      "inputs": [],
      "name": "timeForWithdraw",
      "outputs": [
        {
          "internalType": "uint256",
          "name": "",
          "type": "uint256"
        }
      ],
      "stateMutability": "view",
      "type": "function"
    },
    {
      "inputs": [],
      "name": "withdraw",
      "outputs": [],
      "stateMutability": "nonpayable",
      "type": "function"
    },
    {
      "stateMutability": "payable",
      "type": "receive"
    }
  ],
  "bytecode": "0x60806040526005600055600060015560006002556000600360006101000a81548160ff0219169083151502179055503480156200003b57600080fd5b5060405162001d4c38038062001d4c8339818101604052810190620000619190620002c2565b600073ffffffffffffffffffffffffffffffffffffffff168573ffffffffffffffffffffffffffffffffffffffff16036200009b57600080fd5b84600760006101000a81548173ffffffffffffffffffffffffffffffffffffffff021916908373ffffffffffffffffffffffffffffffffffffffff16021790555080600a60006101000a81548173ffffffffffffffffffffffffffffffffffffffff021916908373ffffffffffffffffffffffffffffffffffffffff16021790555083600960006101000a81548173ffffffffffffffffffffffffffffffffffffffff021916908373ffffffffffffffffffffffffffffffffffffffff16021790555082426200016c919062000379565b6004819055508160045462000182919062000379565b6006819055505050505050620003b4565b600080fd5b600073ffffffffffffffffffffffffffffffffffffffff82169050919050565b6000620001c58262000198565b9050919050565b620001d781620001b8565b8114620001e357600080fd5b50565b600081519050620001f781620001cc565b92915050565b60006200020a82620001b8565b9050919050565b6200021c81620001fd565b81146200022857600080fd5b50565b6000815190506200023c8162000211565b92915050565b6000819050919050565b620002578162000242565b81146200026357600080fd5b50565b60008151905062000277816200024c565b92915050565b60006200028a82620001b8565b9050919050565b6200029c816200027d565b8114620002a857600080fd5b50565b600081519050620002bc8162000291565b92915050565b600080600080600060a08688031215620002e157620002e062000193565b5b6000620002f188828901620001e6565b955050602062000304888289016200022b565b9450506040620003178882890162000266565b93505060606200032a8882890162000266565b92505060806200033d88828901620002ab565b9150509295509295909350565b7f4e487b7100000000000000000000000000000000000000000000000000000000600052601160045260246000fd5b6000620003868262000242565b9150620003938362000242565b9250828201905080821115620003ae57620003ad6200034a565b5b92915050565b61198880620003c46000396000f3fe6080604052600436106101025760003560e01c80638498ff6811610095578063cb72759d11610064578063cb72759d146102d4578063cf73a1bc146102fd578063d50bcc7114610328578063da78a7e314610365578063fe95b2a51461039057610109565b80638498ff68146102285780639c7632fc14610253578063b69ef8a81461027e578063c0c41b52146102a957610109565b80633ccfd60b116100d15780633ccfd60b146101a45780633e6ad960146101bb57806354bf8512146101d2578063848f7b44146101fd57610109565b8063058132661461010e578063076bc8551461012557806320616967146101505780632e2ebe061461017b57610109565b3661010957005b600080fd5b34801561011a57600080fd5b506101236103b9565b005b34801561013157600080fd5b5061013a610548565b60405161014791906111dd565b60405180910390f35b34801561015c57600080fd5b5061016561054e565b60405161017291906111dd565b60405180910390f35b34801561018757600080fd5b506101a2600480360381019061019d9190611229565b610554565b005b3480156101b057600080fd5b506101b96106fb565b005b3480156101c757600080fd5b506101d0610956565b005b3480156101de57600080fd5b506101e7610a8b565b6040516101f491906111dd565b60405180910390f35b34801561020957600080fd5b50610212610d7f565b60405161021f91906111dd565b60405180910390f35b34801561023457600080fd5b5061023d610d85565b60405161024a91906111dd565b60405180910390f35b34801561025f57600080fd5b50610268610d8b565b60405161027591906111dd565b60405180910390f35b34801561028a57600080fd5b50610293610d91565b6040516102a091906111dd565b60405180910390f35b3480156102b557600080fd5b506102be610d97565b6040516102cb9190611271565b60405180910390f35b3480156102e057600080fd5b506102fb60048036038101906102f69190611229565b610daa565b005b34801561030957600080fd5b50610312610f16565b60405161031f91906112cd565b60405180910390f35b34801561033457600080fd5b5061034f600480360381019061034a9190611314565b610f3c565b60405161035c91906111dd565b60405180910390f35b34801561037157600080fd5b5061037a610f85565b60405161038791906111dd565b60405180910390f35b34801561039c57600080fd5b506103b760048036038101906103b29190611229565b610f8b565b005b60065442116103fd576040517f08c379a00000000000000000000000000000000000000000000000000000000081526004016103f49061139e565b60405180910390fd5b600a60009054906101000a900473ffffffffffffffffffffffffffffffffffffffff1673ffffffffffffffffffffffffffffffffffffffff166350f0a08b476040518263ffffffff1660e01b81526004016000604051808303818588803b15801561046757600080fd5b505af115801561047b573d6000803e3d6000fd5b5050505050610488610a8b565b50600960009054906101000a900473ffffffffffffffffffffffffffffffffffffffff1673ffffffffffffffffffffffffffffffffffffffff166370a08231306040518263ffffffff1660e01b81526004016104e491906112cd565b602060405180830381865afa158015610501573d6000803e3d6000fd5b505050506040513d601f19601f8201168201806040525081019061052591906113d3565b6002819055506000600360006101000a81548160ff021916908315150217905550565b60005481565b60025481565b6004544210610598576040517f08c379a000000000000000000000000000000000000000000000000000000000815260040161058f9061144c565b60405180910390fd5b80600b60003373ffffffffffffffffffffffffffffffffffffffff1673ffffffffffffffffffffffffffffffffffffffff16815260200190815260200160002060008282546105e7919061149b565b925050819055508060016000828254610600919061149b565b92505081905550600960009054906101000a900473ffffffffffffffffffffffffffffffffffffffff1673ffffffffffffffffffffffffffffffffffffffff166323b872dd3330846040518463ffffffff1660e01b8152600401610666939291906114cf565b6020604051808303816000875af1158015610685573d6000803e3d6000fd5b505050506040513d601f19601f820116820180604052508101906106a99190611532565b503373ffffffffffffffffffffffffffffffffffffffff167f4a22dc040204dc3b4c23d59337813142c712ad0dfdf530ad27fd3e72de3bf77b826040516106f091906111dd565b60405180910390a250565b600654421161073f576040517f08c379a00000000000000000000000000000000000000000000000000000000081526004016107369061139e565b60405180910390fd5b6000600b60003373ffffffffffffffffffffffffffffffffffffffff1673ffffffffffffffffffffffffffffffffffffffff16815260200190815260200160002054116107c1576040517f08c379a00000000000000000000000000000000000000000000000000000000081526004016107b8906115ab565b60405180910390fd5b6000600154600b60003373ffffffffffffffffffffffffffffffffffffffff1673ffffffffffffffffffffffffffffffffffffffff1681526020019081526020016000205460025461081391906115cb565b61081d919061163c565b90506000600b60003373ffffffffffffffffffffffffffffffffffffffff1673ffffffffffffffffffffffffffffffffffffffff16815260200190815260200160002081905550600960009054906101000a900473ffffffffffffffffffffffffffffffffffffffff1673ffffffffffffffffffffffffffffffffffffffff1663a9059cbb33836040518363ffffffff1660e01b81526004016108c192919061166d565b6020604051808303816000875af11580156108e0573d6000803e3d6000fd5b505050506040513d601f19601f820116820180604052508101906109049190611532565b503373ffffffffffffffffffffffffffffffffffffffff167f774564cdeb2eed3fea82edc31d04b2e1451256f6b726da108f32a53f4307ef488260405161094b91906111dd565b60405180910390a250565b3373ffffffffffffffffffffffffffffffffffffffff16600760009054906101000a900473ffffffffffffffffffffffffffffffffffffffff1673ffffffffffffffffffffffffffffffffffffffff16146109e6576040517f08c379a00000000000000000000000000000000000000000000000000000000081526004016109dd906116e2565b60405180910390fd5b6004544211610a2a576040517f08c379a0000000000000000000000000000000000000000000000000000000008152600401610a219061174e565b60405180910390fd5b6006544210610a6e576040517f08c379a0000000000000000000000000000000000000000000000000000000008152600401610a65906117ba565b60405180910390fd5b6001600360006101000a81548160ff021916908315150217905550565b6000600154600960009054906101000a900473ffffffffffffffffffffffffffffffffffffffff1673ffffffffffffffffffffffffffffffffffffffff166370a08231306040518263ffffffff1660e01b8152600401610aeb91906112cd565b602060405180830381865afa158015610b08573d6000803e3d6000fd5b505050506040513d601f19601f82011682018060405250810190610b2c91906113d3565b11610b935760006008819055503373ffffffffffffffffffffffffffffffffffffffff167f33b3d98265f0a5c5a0c3d53550312d300dbbe60c46ef0a99e8cb750af61611ec600854604051610b8191906111dd565b60405180910390a26008549050610d7c565b6000600154600960009054906101000a900473ffffffffffffffffffffffffffffffffffffffff1673ffffffffffffffffffffffffffffffffffffffff166370a08231306040518263ffffffff1660e01b8152600401610bf391906112cd565b602060405180830381865afa158015610c10573d6000803e3d6000fd5b505050506040513d601f19601f82011682018060405250810190610c3491906113d3565b610c3e91906117da565b9050606460005482610c5091906115cb565b610c5a919061163c565b600881905550600960009054906101000a900473ffffffffffffffffffffffffffffffffffffffff1673ffffffffffffffffffffffffffffffffffffffff1663a9059cbb600760009054906101000a900473ffffffffffffffffffffffffffffffffffffffff166008546040518363ffffffff1660e01b8152600401610ce192919061166d565b6020604051808303816000875af1158015610d00573d6000803e3d6000fd5b505050506040513d601f19601f82011682018060405250810190610d249190611532565b503373ffffffffffffffffffffffffffffffffffffffff167f33b3d98265f0a5c5a0c3d53550312d300dbbe60c46ef0a99e8cb750af61611ec600854604051610d6d91906111dd565b60405180910390a26008549150505b90565b60045481565b60055481565b60085481565b60015481565b600360009054906101000a900460ff1681565b3373ffffffffffffffffffffffffffffffffffffffff16600760009054906101000a900473ffffffffffffffffffffffffffffffffffffffff1673ffffffffffffffffffffffffffffffffffffffff1614610e3a576040517f08c379a0000000000000000000000000000000000000000000000000000000008152600401610e319061185a565b60405180910390fd5b60011515600360009054906101000a900460ff16151514610e90576040517f08c379a0000000000000000000000000000000000000000000000000000000008152600401610e87906118c6565b60405180910390fd5b600a60009054906101000a900473ffffffffffffffffffffffffffffffffffffffff1673ffffffffffffffffffffffffffffffffffffffff166350f0a08b826040518263ffffffff1660e01b81526004016000604051808303818588803b158015610efa57600080fd5b505af1158015610f0e573d6000803e3d6000fd5b505050505050565b600760009054906101000a900473ffffffffffffffffffffffffffffffffffffffff1681565b6000600b60008373ffffffffffffffffffffffffffffffffffffffff1673ffffffffffffffffffffffffffffffffffffffff168152602001908152602001600020549050919050565b60065481565b3373ffffffffffffffffffffffffffffffffffffffff16600760009054906101000a900473ffffffffffffffffffffffffffffffffffffffff1673ffffffffffffffffffffffffffffffffffffffff161461101b576040517f08c379a000000000000000000000000000000000000000000000000000000000815260040161101290611932565b60405180910390fd5b60011515600360009054906101000a900460ff16151514611071576040517f08c379a0000000000000000000000000000000000000000000000000000000008152600401611068906118c6565b60405180910390fd5b600960009054906101000a900473ffffffffffffffffffffffffffffffffffffffff1673ffffffffffffffffffffffffffffffffffffffff1663095ea7b3600a60009054906101000a900473ffffffffffffffffffffffffffffffffffffffff16836040518363ffffffff1660e01b81526004016110f092919061166d565b6020604051808303816000875af115801561110f573d6000803e3d6000fd5b505050506040513d601f19601f820116820180604052508101906111339190611532565b50600a60009054906101000a900473ffffffffffffffffffffffffffffffffffffffff1673ffffffffffffffffffffffffffffffffffffffff1663f16c03bc826040518263ffffffff1660e01b815260040161118f91906111dd565b600060405180830381600087803b1580156111a957600080fd5b505af11580156111bd573d6000803e3d6000fd5b5050505050565b6000819050919050565b6111d7816111c4565b82525050565b60006020820190506111f260008301846111ce565b92915050565b600080fd5b611206816111c4565b811461121157600080fd5b50565b600081359050611223816111fd565b92915050565b60006020828403121561123f5761123e6111f8565b5b600061124d84828501611214565b91505092915050565b60008115159050919050565b61126b81611256565b82525050565b60006020820190506112866000830184611262565b92915050565b600073ffffffffffffffffffffffffffffffffffffffff82169050919050565b60006112b78261128c565b9050919050565b6112c7816112ac565b82525050565b60006020820190506112e260008301846112be565b92915050565b6112f1816112ac565b81146112fc57600080fd5b50565b60008135905061130e816112e8565b92915050565b60006020828403121561132a576113296111f8565b5b6000611338848285016112ff565b91505092915050565b600082825260208201905092915050565b7f7374696c6c207068617365207472616964696e67000000000000000000000000600082015250565b6000611388601483611341565b915061139382611352565b602082019050919050565b600060208201905081810360008301526113b78161137b565b9050919050565b6000815190506113cd816111fd565b92915050565b6000602082840312156113e9576113e86111f8565b5b60006113f7848285016113be565b91505092915050565b7f66756e64726973696e67207761732066696e6973686564000000000000000000600082015250565b6000611436601783611341565b915061144182611400565b602082019050919050565b6000602082019050818103600083015261146581611429565b9050919050565b7f4e487b7100000000000000000000000000000000000000000000000000000000600052601160045260246000fd5b60006114a6826111c4565b91506114b1836111c4565b92508282019050808211156114c9576114c861146c565b5b92915050565b60006060820190506114e460008301866112be565b6114f160208301856112be565b6114fe60408301846111ce565b949350505050565b61150f81611256565b811461151a57600080fd5b50565b60008151905061152c81611506565b92915050565b600060208284031215611548576115476111f8565b5b60006115568482850161151d565b91505092915050565b7f796f7520646f6e742068617665206d6f6e657900000000000000000000000000600082015250565b6000611595601383611341565b91506115a08261155f565b602082019050919050565b600060208201905081810360008301526115c481611588565b9050919050565b60006115d6826111c4565b91506115e1836111c4565b92508282026115ef816111c4565b915082820484148315176116065761160561146c565b5b5092915050565b7f4e487b7100000000000000000000000000000000000000000000000000000000600052601260045260246000fd5b6000611647826111c4565b9150611652836111c4565b9250826116625761166161160d565b5b828204905092915050565b600060408201905061168260008301856112be565b61168f60208301846111ce565b9392505050565b7f796f7520617265206e6f74206d616e6167657200000000000000000000000000600082015250565b60006116cc601383611341565b91506116d782611696565b602082019050919050565b600060208201905081810360008301526116fb816116bf565b9050919050565b7f6563686f206e656c7a757920746f72676f766174000000000000000000000000600082015250565b6000611738601483611341565b915061174382611702565b602082019050919050565b600060208201905081810360008301526117678161172b565b9050919050565b7f7472616964696e67207761732066696e69736865640000000000000000000000600082015250565b60006117a4601583611341565b91506117af8261176e565b602082019050919050565b600060208201905081810360008301526117d381611797565b9050919050565b60006117e5826111c4565b91506117f0836111c4565b92508282039050818111156118085761180761146c565b5b92915050565b7f6572726f722065746820746f2075736463000000000000000000000000000000600082015250565b6000611844601183611341565b915061184f8261180e565b602082019050919050565b6000602082019050818103600083015261187381611837565b9050919050565b7f74686973206973206e6f74207068617365207472616964696e67000000000000600082015250565b60006118b0601a83611341565b91506118bb8261187a565b602082019050919050565b600060208201905081810360008301526118df816118a3565b9050919050565b7f6572726f72207573646320746f20657468000000000000000000000000000000600082015250565b600061191c601183611341565b9150611927826118e6565b602082019050919050565b6000602082019050818103600083015261194b8161190f565b905091905056fea2646970667358221220789aaf0a921e902bf6f742cb120044d8351094d1794519504078f4bbd6f70d3e64736f6c63430008140033",
  "linkReferences": {},
  "deployedLinkReferences": {}
}