{
  "_format": "hh-sol-artifact-1",
  "contractName": "LiquidityPool",
  "sourceName": "contracts/LiquidityPool.sol",
  "abi": [
    {
      "inputs": [
        {
          "internalType": "address",
          "name": "manager",
          "type": "address"
        },
        {
          "internalType": "contract IERC20",
          "name": "_USDC",
          "type": "address"
        },
        {
          "internalType": "uint256",
          "name": "fundrisingDuration",
          "type": "uint256"
        },
        {
          "internalType": "uint256",
          "name": "timeForTraiding",
          "type": "uint256"
        },
        {
          "internalType": "contract ITraidingAccount",
          "name": "traidAc",
          "type": "address"
        }
      ],
      "stateMutability": "nonpayable",
      "type": "constructor"
    },
    {
      "anonymous": false,
      "inputs": [
        {
          "indexed": true,
          "internalType": "address",
          "name": "owner",
          "type": "address"
        },
        {
          "indexed": false,
          "internalType": "uint256",
          "name": "managerFee",
          "type": "uint256"
        }
      ],
      "name": "managerfeeCalculated",
      "type": "event"
    },
    {
      "anonymous": false,
      "inputs": [
        {
          "indexed": true,
          "internalType": "address",
          "name": "owner",
          "type": "address"
        },
        {
          "indexed": false,
          "internalType": "uint256",
          "name": "amountToken",
          "type": "uint256"
        }
      ],
      "name": "ownerProvidedToken",
      "type": "event"
    },
    {
      "anonymous": false,
      "inputs": [
        {
          "indexed": true,
          "internalType": "address",
          "name": "owner",
          "type": "address"
        },
        {
          "indexed": false,
          "internalType": "uint256",
          "name": "amountToken",
          "type": "uint256"
        }
      ],
      "name": "ownerWithDrawToken",
      "type": "event"
    },
    {
      "inputs": [],
      "name": "calculateManagerFee",
      "outputs": [
        {
          "internalType": "uint256",
          "name": "",
          "type": "uint256"
        }
      ],
      "stateMutability": "nonpayable",
      "type": "function"
    },
    {
      "inputs": [],
      "name": "closeTraiding",
      "outputs": [],
      "stateMutability": "nonpayable",
      "type": "function"
    },
    {
      "inputs": [],
      "name": "getBalance",
      "outputs": [
        {
          "internalType": "uint256",
          "name": "",
          "type": "uint256"
        }
      ],
      "stateMutability": "view",
      "type": "function"
    },
    {
      "inputs": [],
      "name": "getCanTraiding",
      "outputs": [
        {
          "internalType": "bool",
          "name": "",
          "type": "bool"
        }
      ],
      "stateMutability": "view",
      "type": "function"
    },
    {
      "inputs": [],
      "name": "getManagerFee",
      "outputs": [
        {
          "internalType": "uint256",
          "name": "",
          "type": "uint256"
        }
      ],
      "stateMutability": "view",
      "type": "function"
    },
    {
      "inputs": [
        {
          "internalType": "address",
          "name": "_address",
          "type": "address"
        }
      ],
      "name": "getOwnerTokenCount",
      "outputs": [
        {
          "internalType": "uint256",
          "name": "",
          "type": "uint256"
        }
      ],
      "stateMutability": "view",
      "type": "function"
    },
    {
      "inputs": [],
      "name": "managerAddress",
      "outputs": [
        {
          "internalType": "address",
          "name": "",
          "type": "address"
        }
      ],
      "stateMutability": "view",
      "type": "function"
    },
    {
      "inputs": [
        {
          "internalType": "uint256",
          "name": "amountToken",
          "type": "uint256"
        }
      ],
      "name": "provide",
      "outputs": [],
      "stateMutability": "nonpayable",
      "type": "function"
    },
    {
      "inputs": [],
      "name": "startTraiding",
      "outputs": [],
      "stateMutability": "nonpayable",
      "type": "function"
    },
    {
      "inputs": [
        {
          "internalType": "uint256",
          "name": "amountToken",
          "type": "uint256"
        }
      ],
      "name": "swapETHtoUSDC",
      "outputs": [],
      "stateMutability": "nonpayable",
      "type": "function"
    },
    {
      "inputs": [
        {
          "internalType": "uint256",
          "name": "amountToken",
          "type": "uint256"
        }
      ],
      "name": "swapUSDCtoETH",
      "outputs": [],
      "stateMutability": "nonpayable",
      "type": "function"
    },
    {
      "inputs": [],
      "name": "withdraw",
      "outputs": [],
      "stateMutability": "nonpayable",
      "type": "function"
    },
    {
      "stateMutability": "payable",
      "type": "receive"
    }
  ],
  "bytecode": "0x6080604052600560005560006001556000600260006101000a81548160ff0219169083151502179055503480156200003657600080fd5b50604051620019bd380380620019bd83398181016040528101906200005c9190620002bd565b600073ffffffffffffffffffffffffffffffffffffffff168573ffffffffffffffffffffffffffffffffffffffff16036200009657600080fd5b84600660006101000a81548173ffffffffffffffffffffffffffffffffffffffff021916908373ffffffffffffffffffffffffffffffffffffffff16021790555080600960006101000a81548173ffffffffffffffffffffffffffffffffffffffff021916908373ffffffffffffffffffffffffffffffffffffffff16021790555083600860006101000a81548173ffffffffffffffffffffffffffffffffffffffff021916908373ffffffffffffffffffffffffffffffffffffffff160217905550824262000167919062000374565b600381905550816003546200017d919062000374565b6005819055505050505050620003af565b600080fd5b600073ffffffffffffffffffffffffffffffffffffffff82169050919050565b6000620001c08262000193565b9050919050565b620001d281620001b3565b8114620001de57600080fd5b50565b600081519050620001f281620001c7565b92915050565b60006200020582620001b3565b9050919050565b6200021781620001f8565b81146200022357600080fd5b50565b60008151905062000237816200020c565b92915050565b6000819050919050565b62000252816200023d565b81146200025e57600080fd5b50565b600081519050620002728162000247565b92915050565b60006200028582620001b3565b9050919050565b620002978162000278565b8114620002a357600080fd5b50565b600081519050620002b7816200028c565b92915050565b600080600080600060a08688031215620002dc57620002db6200018e565b5b6000620002ec88828901620001e1565b9550506020620002ff8882890162000226565b9450506040620003128882890162000261565b9350506060620003258882890162000261565b92505060806200033888828901620002a6565b9150509295509295909350565b7f4e487b7100000000000000000000000000000000000000000000000000000000600052601160045260246000fd5b600062000381826200023d565b91506200038e836200023d565b9250828201905080821115620003a957620003a862000345565b5b92915050565b6115fe80620003bf6000396000f3fe6080604052600436106100ab5760003560e01c806354bf85121161006457806354bf85121461017b57806377212ead146101a6578063cb72759d146101d1578063cf73a1bc146101fa578063d50bcc7114610225578063fe95b2a514610262576100b2565b806305813266146100b757806312065fe0146100ce57806319805538146100f95780632e2ebe06146101245780633ccfd60b1461014d5780633e6ad96014610164576100b2565b366100b257005b600080fd5b3480156100c357600080fd5b506100cc61028b565b005b3480156100da57600080fd5b506100e3610378565b6040516100f09190610f97565b60405180910390f35b34801561010557600080fd5b5061010e610382565b60405161011b9190610f97565b60405180910390f35b34801561013057600080fd5b5061014b60048036038101906101469190610fe3565b61038c565b005b34801561015957600080fd5b506101626104ef565b005b34801561017057600080fd5b5061017961076e565b005b34801561018757600080fd5b5061019061085f565b60405161019d9190610f97565b60405180910390f35b3480156101b257600080fd5b506101bb610b53565b6040516101c8919061102b565b60405180910390f35b3480156101dd57600080fd5b506101f860048036038101906101f39190610fe3565b610b6a565b005b34801561020657600080fd5b5061020f610cd6565b60405161021c9190611087565b60405180910390f35b34801561023157600080fd5b5061024c600480360381019061024791906110ce565b610cfc565b6040516102599190610f97565b60405180910390f35b34801561026e57600080fd5b5061028960048036038101906102849190610fe3565b610d45565b005b60055442116102cf576040517f08c379a00000000000000000000000000000000000000000000000000000000081526004016102c690611158565b60405180910390fd5b600960009054906101000a900473ffffffffffffffffffffffffffffffffffffffff1673ffffffffffffffffffffffffffffffffffffffff166350f0a08b476040518263ffffffff1660e01b81526004016000604051808303818588803b15801561033957600080fd5b505af115801561034d573d6000803e3d6000fd5b505050505061035a61085f565b506000600260006101000a81548160ff021916908315150217905550565b6000600154905090565b6000600754905090565b80600a60003373ffffffffffffffffffffffffffffffffffffffff1673ffffffffffffffffffffffffffffffffffffffff16815260200190815260200160002060008282546103db91906111a7565b9250508190555080600160008282546103f491906111a7565b92505081905550600860009054906101000a900473ffffffffffffffffffffffffffffffffffffffff1673ffffffffffffffffffffffffffffffffffffffff166323b872dd3330846040518463ffffffff1660e01b815260040161045a939291906111db565b6020604051808303816000875af1158015610479573d6000803e3d6000fd5b505050506040513d601f19601f8201168201806040525081019061049d919061123e565b503373ffffffffffffffffffffffffffffffffffffffff167f4a22dc040204dc3b4c23d59337813142c712ad0dfdf530ad27fd3e72de3bf77b826040516104e49190610f97565b60405180910390a250565b6005544211610533576040517f08c379a000000000000000000000000000000000000000000000000000000000815260040161052a90611158565b60405180910390fd5b6000600754600860009054906101000a900473ffffffffffffffffffffffffffffffffffffffff1673ffffffffffffffffffffffffffffffffffffffff166370a08231306040518263ffffffff1660e01b81526004016105939190611087565b602060405180830381865afa1580156105b0573d6000803e3d6000fd5b505050506040513d601f19601f820116820180604052508101906105d49190611280565b6105de91906112ad565b600154600a60003373ffffffffffffffffffffffffffffffffffffffff1673ffffffffffffffffffffffffffffffffffffffff1681526020019081526020016000205461062b9190611310565b6106359190611341565b90506000600a60003373ffffffffffffffffffffffffffffffffffffffff1673ffffffffffffffffffffffffffffffffffffffff16815260200190815260200160002081905550600860009054906101000a900473ffffffffffffffffffffffffffffffffffffffff1673ffffffffffffffffffffffffffffffffffffffff1663a9059cbb33836040518363ffffffff1660e01b81526004016106d9929190611383565b6020604051808303816000875af11580156106f8573d6000803e3d6000fd5b505050506040513d601f19601f8201168201806040525081019061071c919061123e565b503373ffffffffffffffffffffffffffffffffffffffff167f774564cdeb2eed3fea82edc31d04b2e1451256f6b726da108f32a53f4307ef48826040516107639190610f97565b60405180910390a250565b3373ffffffffffffffffffffffffffffffffffffffff16600660009054906101000a900473ffffffffffffffffffffffffffffffffffffffff1673ffffffffffffffffffffffffffffffffffffffff16146107fe576040517f08c379a00000000000000000000000000000000000000000000000000000000081526004016107f5906113f8565b60405180910390fd5b6003544211610842576040517f08c379a000000000000000000000000000000000000000000000000000000000815260040161083990611464565b60405180910390fd5b6001600260006101000a81548160ff021916908315150217905550565b6000600154600860009054906101000a900473ffffffffffffffffffffffffffffffffffffffff1673ffffffffffffffffffffffffffffffffffffffff166370a08231306040518263ffffffff1660e01b81526004016108bf9190611087565b602060405180830381865afa1580156108dc573d6000803e3d6000fd5b505050506040513d601f19601f820116820180604052508101906109009190611280565b116109675760006007819055503373ffffffffffffffffffffffffffffffffffffffff167f33b3d98265f0a5c5a0c3d53550312d300dbbe60c46ef0a99e8cb750af61611ec6007546040516109559190610f97565b60405180910390a26007549050610b50565b6000600154600860009054906101000a900473ffffffffffffffffffffffffffffffffffffffff1673ffffffffffffffffffffffffffffffffffffffff166370a08231306040518263ffffffff1660e01b81526004016109c79190611087565b602060405180830381865afa1580156109e4573d6000803e3d6000fd5b505050506040513d601f19601f82011682018060405250810190610a089190611280565b610a1291906112ad565b9050600054606482610a249190611310565b610a2e9190611341565b600781905550600860009054906101000a900473ffffffffffffffffffffffffffffffffffffffff1673ffffffffffffffffffffffffffffffffffffffff1663a9059cbb600660009054906101000a900473ffffffffffffffffffffffffffffffffffffffff166007546040518363ffffffff1660e01b8152600401610ab5929190611383565b6020604051808303816000875af1158015610ad4573d6000803e3d6000fd5b505050506040513d601f19601f82011682018060405250810190610af8919061123e565b503373ffffffffffffffffffffffffffffffffffffffff167f33b3d98265f0a5c5a0c3d53550312d300dbbe60c46ef0a99e8cb750af61611ec600754604051610b419190610f97565b60405180910390a26007549150505b90565b6000600260009054906101000a900460ff16905090565b3373ffffffffffffffffffffffffffffffffffffffff16600660009054906101000a900473ffffffffffffffffffffffffffffffffffffffff1673ffffffffffffffffffffffffffffffffffffffff1614610bfa576040517f08c379a0000000000000000000000000000000000000000000000000000000008152600401610bf1906114d0565b60405180910390fd5b60011515600260009054906101000a900460ff16151514610c50576040517f08c379a0000000000000000000000000000000000000000000000000000000008152600401610c479061153c565b60405180910390fd5b600960009054906101000a900473ffffffffffffffffffffffffffffffffffffffff1673ffffffffffffffffffffffffffffffffffffffff166350f0a08b826040518263ffffffff1660e01b81526004016000604051808303818588803b158015610cba57600080fd5b505af1158015610cce573d6000803e3d6000fd5b505050505050565b600660009054906101000a900473ffffffffffffffffffffffffffffffffffffffff1681565b6000600a60008373ffffffffffffffffffffffffffffffffffffffff1673ffffffffffffffffffffffffffffffffffffffff168152602001908152602001600020549050919050565b3373ffffffffffffffffffffffffffffffffffffffff16600660009054906101000a900473ffffffffffffffffffffffffffffffffffffffff1673ffffffffffffffffffffffffffffffffffffffff1614610dd5576040517f08c379a0000000000000000000000000000000000000000000000000000000008152600401610dcc906115a8565b60405180910390fd5b60011515600260009054906101000a900460ff16151514610e2b576040517f08c379a0000000000000000000000000000000000000000000000000000000008152600401610e229061153c565b60405180910390fd5b600860009054906101000a900473ffffffffffffffffffffffffffffffffffffffff1673ffffffffffffffffffffffffffffffffffffffff1663095ea7b3600960009054906101000a900473ffffffffffffffffffffffffffffffffffffffff16836040518363ffffffff1660e01b8152600401610eaa929190611383565b6020604051808303816000875af1158015610ec9573d6000803e3d6000fd5b505050506040513d601f19601f82011682018060405250810190610eed919061123e565b50600960009054906101000a900473ffffffffffffffffffffffffffffffffffffffff1673ffffffffffffffffffffffffffffffffffffffff1663f16c03bc826040518263ffffffff1660e01b8152600401610f499190610f97565b600060405180830381600087803b158015610f6357600080fd5b505af1158015610f77573d6000803e3d6000fd5b5050505050565b6000819050919050565b610f9181610f7e565b82525050565b6000602082019050610fac6000830184610f88565b92915050565b600080fd5b610fc081610f7e565b8114610fcb57600080fd5b50565b600081359050610fdd81610fb7565b92915050565b600060208284031215610ff957610ff8610fb2565b5b600061100784828501610fce565b91505092915050565b60008115159050919050565b61102581611010565b82525050565b6000602082019050611040600083018461101c565b92915050565b600073ffffffffffffffffffffffffffffffffffffffff82169050919050565b600061107182611046565b9050919050565b61108181611066565b82525050565b600060208201905061109c6000830184611078565b92915050565b6110ab81611066565b81146110b657600080fd5b50565b6000813590506110c8816110a2565b92915050565b6000602082840312156110e4576110e3610fb2565b5b60006110f2848285016110b9565b91505092915050565b600082825260208201905092915050565b7f7374696c6c207068617365207472616964696e67000000000000000000000000600082015250565b60006111426014836110fb565b915061114d8261110c565b602082019050919050565b6000602082019050818103600083015261117181611135565b9050919050565b7f4e487b7100000000000000000000000000000000000000000000000000000000600052601160045260246000fd5b60006111b282610f7e565b91506111bd83610f7e565b92508282019050808211156111d5576111d4611178565b5b92915050565b60006060820190506111f06000830186611078565b6111fd6020830185611078565b61120a6040830184610f88565b949350505050565b61121b81611010565b811461122657600080fd5b50565b60008151905061123881611212565b92915050565b60006020828403121561125457611253610fb2565b5b600061126284828501611229565b91505092915050565b60008151905061127a81610fb7565b92915050565b60006020828403121561129657611295610fb2565b5b60006112a48482850161126b565b91505092915050565b60006112b882610f7e565b91506112c383610f7e565b92508282039050818111156112db576112da611178565b5b92915050565b7f4e487b7100000000000000000000000000000000000000000000000000000000600052601260045260246000fd5b600061131b82610f7e565b915061132683610f7e565b925082611336576113356112e1565b5b828204905092915050565b600061134c82610f7e565b915061135783610f7e565b925082820261136581610f7e565b9150828204841483151761137c5761137b611178565b5b5092915050565b60006040820190506113986000830185611078565b6113a56020830184610f88565b9392505050565b7f796f7520617265206e6f74206d616e6167657200000000000000000000000000600082015250565b60006113e26013836110fb565b91506113ed826113ac565b602082019050919050565b60006020820190508181036000830152611411816113d5565b9050919050565b7f6563686f206e656c7a757920746f72676f766174000000000000000000000000600082015250565b600061144e6014836110fb565b915061145982611418565b602082019050919050565b6000602082019050818103600083015261147d81611441565b9050919050565b7f6572726f722065746820746f2075736463000000000000000000000000000000600082015250565b60006114ba6011836110fb565b91506114c582611484565b602082019050919050565b600060208201905081810360008301526114e9816114ad565b9050919050565b7f74686973206973206e6f74207068617365207472616964696e67000000000000600082015250565b6000611526601a836110fb565b9150611531826114f0565b602082019050919050565b6000602082019050818103600083015261155581611519565b9050919050565b7f6572726f72207573646320746f20657468000000000000000000000000000000600082015250565b60006115926011836110fb565b915061159d8261155c565b602082019050919050565b600060208201905081810360008301526115c181611585565b905091905056fea264697066735822122035f87b1e7090f50e6f173432034225c9a1269a475b248141eab9bd03d87a346f64736f6c63430008140033",
  "linkReferences": {},
  "deployedLinkReferences": {}
}