{
  "_format": "hh-sol-artifact-1",
  "contractName": "TraidingAccount",
  "sourceName": "contracts/mocks/TraidingAccount.sol",
  "abi": [
    {
      "inputs": [
        {
          "internalType": "contract IERC20",
          "name": "_USDC",
          "type": "address"
        }
      ],
      "stateMutability": "nonpayable",
      "type": "constructor"
    },
    {
      "inputs": [],
      "name": "currency",
      "outputs": [
        {
          "internalType": "uint256",
          "name": "",
          "type": "uint256"
        }
      ],
      "stateMutability": "view",
      "type": "function"
    },
    {
      "inputs": [
        {
          "internalType": "uint256",
          "name": "value",
          "type": "uint256"
        }
      ],
      "name": "setCurrency",
      "outputs": [],
      "stateMutability": "nonpayable",
      "type": "function"
    },
    {
      "inputs": [],
      "name": "swapETHtoUSDCUniswap",
      "outputs": [],
      "stateMutability": "payable",
      "type": "function"
    },
    {
      "inputs": [
        {
          "internalType": "uint256",
          "name": "amountToken",
          "type": "uint256"
        }
      ],
      "name": "swapUSDCtoETHUniswap",
      "outputs": [],
      "stateMutability": "payable",
      "type": "function"
    },
    {
      "stateMutability": "payable",
      "type": "receive"
    }
  ],
  "bytecode": "0x60806040526107d060035534801561001657600080fd5b50604051610679380380610679833981810160405281019061003891906100f3565b806000806101000a81548173ffffffffffffffffffffffffffffffffffffffff021916908373ffffffffffffffffffffffffffffffffffffffff16021790555050610120565b600080fd5b600073ffffffffffffffffffffffffffffffffffffffff82169050919050565b60006100ae82610083565b9050919050565b60006100c0826100a3565b9050919050565b6100d0816100b5565b81146100db57600080fd5b50565b6000815190506100ed816100c7565b92915050565b6000602082840312156101095761010861007e565b5b6000610117848285016100de565b91505092915050565b61054a8061012f6000396000f3fe6080604052600436106100435760003560e01c806350f0a08b1461004f578063dcc2373014610059578063e5a6b10f14610082578063f16c03bc146100ad5761004a565b3661004a57005b600080fd5b6100576100c9565b005b34801561006557600080fd5b50610080600480360381019061007b91906102e6565b61018d565b005b34801561008e57600080fd5b50610097610197565b6040516100a49190610322565b60405180910390f35b6100c760048036038101906100c291906102e6565b61019d565b005b600064e8d4a51000346003546100df919061036c565b6100e991906103dd565b905060008054906101000a900473ffffffffffffffffffffffffffffffffffffffff1673ffffffffffffffffffffffffffffffffffffffff1663a9059cbb33836040518363ffffffff1660e01b815260040161014692919061044f565b6020604051808303816000875af1158015610165573d6000803e3d6000fd5b505050506040513d601f19601f8201168201806040525081019061018991906104b0565b5050565b8060038190555050565b60035481565b600060035464e8d4a51000836101b3919061036c565b6101bd91906103dd565b905060008054906101000a900473ffffffffffffffffffffffffffffffffffffffff1673ffffffffffffffffffffffffffffffffffffffff166323b872dd3330856040518463ffffffff1660e01b815260040161021c939291906104dd565b6020604051808303816000875af115801561023b573d6000803e3d6000fd5b505050506040513d601f19601f8201168201806040525081019061025f91906104b0565b503373ffffffffffffffffffffffffffffffffffffffff166108fc829081150290604051600060405180830381858888f193505050501580156102a6573d6000803e3d6000fd5b505050565b600080fd5b6000819050919050565b6102c3816102b0565b81146102ce57600080fd5b50565b6000813590506102e0816102ba565b92915050565b6000602082840312156102fc576102fb6102ab565b5b600061030a848285016102d1565b91505092915050565b61031c816102b0565b82525050565b60006020820190506103376000830184610313565b92915050565b7f4e487b7100000000000000000000000000000000000000000000000000000000600052601160045260246000fd5b6000610377826102b0565b9150610382836102b0565b9250828202610390816102b0565b915082820484148315176103a7576103a661033d565b5b5092915050565b7f4e487b7100000000000000000000000000000000000000000000000000000000600052601260045260246000fd5b60006103e8826102b0565b91506103f3836102b0565b925082610403576104026103ae565b5b828204905092915050565b600073ffffffffffffffffffffffffffffffffffffffff82169050919050565b60006104398261040e565b9050919050565b6104498161042e565b82525050565b60006040820190506104646000830185610440565b6104716020830184610313565b9392505050565b60008115159050919050565b61048d81610478565b811461049857600080fd5b50565b6000815190506104aa81610484565b92915050565b6000602082840312156104c6576104c56102ab565b5b60006104d48482850161049b565b91505092915050565b60006060820190506104f26000830186610440565b6104ff6020830185610440565b61050c6040830184610313565b94935050505056fea2646970667358221220c8ddea972413bd4d289040b42461928161943886ac7f25a458382e1cfa5d764064736f6c63430008140033",
  "linkReferences": {},
  "deployedLinkReferences": {}
}