{
  "_format": "hh-sol-artifact-1",
  "contractName": "TraidingAccount",
  "sourceName": "contracts/mocks/TraidingAccount.sol",
  "abi": [
    {
      "inputs": [
        {
          "internalType": "contract IERC20",
          "name": "_USDC",
          "type": "address"
        }
      ],
      "stateMutability": "nonpayable",
      "type": "constructor"
    },
    {
      "inputs": [],
      "name": "currency",
      "outputs": [
        {
          "internalType": "uint256",
          "name": "",
          "type": "uint256"
        }
      ],
      "stateMutability": "view",
      "type": "function"
    },
    {
      "inputs": [
        {
          "internalType": "uint256",
          "name": "value",
          "type": "uint256"
        }
      ],
      "name": "setCurrency",
      "outputs": [],
      "stateMutability": "nonpayable",
      "type": "function"
    },
    {
      "inputs": [],
      "name": "swapETHtoUSDCUniswap",
      "outputs": [],
      "stateMutability": "payable",
      "type": "function"
    },
    {
      "inputs": [
        {
          "internalType": "uint256",
          "name": "amountToken",
          "type": "uint256"
        }
      ],
      "name": "swapUSDCtoETHUniswap",
      "outputs": [],
      "stateMutability": "nonpayable",
      "type": "function"
    },
    {
      "stateMutability": "payable",
      "type": "receive"
    }
  ],
  "bytecode": "0x60806040526107d060035534801561001657600080fd5b50604051610686380380610686833981810160405281019061003891906100f3565b806000806101000a81548173ffffffffffffffffffffffffffffffffffffffff021916908373ffffffffffffffffffffffffffffffffffffffff16021790555050610120565b600080fd5b600073ffffffffffffffffffffffffffffffffffffffff82169050919050565b60006100ae82610083565b9050919050565b60006100c0826100a3565b9050919050565b6100d0816100b5565b81146100db57600080fd5b50565b6000815190506100ed816100c7565b92915050565b6000602082840312156101095761010861007e565b5b6000610117848285016100de565b91505092915050565b6105578061012f6000396000f3fe6080604052600436106100435760003560e01c806350f0a08b1461004f578063dcc2373014610059578063e5a6b10f14610082578063f16c03bc146100ad5761004a565b3661004a57005b600080fd5b6100576100d6565b005b34801561006557600080fd5b50610080600480360381019061007b91906102f3565b61019a565b005b34801561008e57600080fd5b506100976101a4565b6040516100a4919061032f565b60405180910390f35b3480156100b957600080fd5b506100d460048036038101906100cf91906102f3565b6101aa565b005b600064e8d4a51000346003546100ec9190610379565b6100f691906103ea565b905060008054906101000a900473ffffffffffffffffffffffffffffffffffffffff1673ffffffffffffffffffffffffffffffffffffffff1663a9059cbb33836040518363ffffffff1660e01b815260040161015392919061045c565b6020604051808303816000875af1158015610172573d6000803e3d6000fd5b505050506040513d601f19601f8201168201806040525081019061019691906104bd565b5050565b8060038190555050565b60035481565b600060035464e8d4a51000836101c09190610379565b6101ca91906103ea565b905060008054906101000a900473ffffffffffffffffffffffffffffffffffffffff1673ffffffffffffffffffffffffffffffffffffffff166323b872dd3330856040518463ffffffff1660e01b8152600401610229939291906104ea565b6020604051808303816000875af1158015610248573d6000803e3d6000fd5b505050506040513d601f19601f8201168201806040525081019061026c91906104bd565b503373ffffffffffffffffffffffffffffffffffffffff166108fc829081150290604051600060405180830381858888f193505050501580156102b3573d6000803e3d6000fd5b505050565b600080fd5b6000819050919050565b6102d0816102bd565b81146102db57600080fd5b50565b6000813590506102ed816102c7565b92915050565b600060208284031215610309576103086102b8565b5b6000610317848285016102de565b91505092915050565b610329816102bd565b82525050565b60006020820190506103446000830184610320565b92915050565b7f4e487b7100000000000000000000000000000000000000000000000000000000600052601160045260246000fd5b6000610384826102bd565b915061038f836102bd565b925082820261039d816102bd565b915082820484148315176103b4576103b361034a565b5b5092915050565b7f4e487b7100000000000000000000000000000000000000000000000000000000600052601260045260246000fd5b60006103f5826102bd565b9150610400836102bd565b9250826104105761040f6103bb565b5b828204905092915050565b600073ffffffffffffffffffffffffffffffffffffffff82169050919050565b60006104468261041b565b9050919050565b6104568161043b565b82525050565b6000604082019050610471600083018561044d565b61047e6020830184610320565b9392505050565b60008115159050919050565b61049a81610485565b81146104a557600080fd5b50565b6000815190506104b781610491565b92915050565b6000602082840312156104d3576104d26102b8565b5b60006104e1848285016104a8565b91505092915050565b60006060820190506104ff600083018661044d565b61050c602083018561044d565b6105196040830184610320565b94935050505056fea264697066735822122037ec941fa88d4b7b20b605233978b7d0224b26684563775d78d424cce169180364736f6c63430008140033",
  "linkReferences": {},
  "deployedLinkReferences": {}
}